{
  "_format": "hh-sol-artifact-1",
  "contractName": "PokemonNFT",
  "sourceName": "contracts/PokeContract.sol",
  "abi": [
    {
      "inputs": [],
      "stateMutability": "nonpayable",
      "type": "constructor"
    },
    {
      "inputs": [
        {
          "internalType": "address",
          "name": "sender",
          "type": "address"
        },
        {
          "internalType": "uint256",
          "name": "balance",
          "type": "uint256"
        },
        {
          "internalType": "uint256",
          "name": "needed",
          "type": "uint256"
        },
        {
          "internalType": "uint256",
          "name": "tokenId",
          "type": "uint256"
        }
      ],
      "name": "ERC1155InsufficientBalance",
      "type": "error"
    },
    {
      "inputs": [
        {
          "internalType": "address",
          "name": "approver",
          "type": "address"
        }
      ],
      "name": "ERC1155InvalidApprover",
      "type": "error"
    },
    {
      "inputs": [
        {
          "internalType": "uint256",
          "name": "idsLength",
          "type": "uint256"
        },
        {
          "internalType": "uint256",
          "name": "valuesLength",
          "type": "uint256"
        }
      ],
      "name": "ERC1155InvalidArrayLength",
      "type": "error"
    },
    {
      "inputs": [
        {
          "internalType": "address",
          "name": "operator",
          "type": "address"
        }
      ],
      "name": "ERC1155InvalidOperator",
      "type": "error"
    },
    {
      "inputs": [
        {
          "internalType": "address",
          "name": "receiver",
          "type": "address"
        }
      ],
      "name": "ERC1155InvalidReceiver",
      "type": "error"
    },
    {
      "inputs": [
        {
          "internalType": "address",
          "name": "sender",
          "type": "address"
        }
      ],
      "name": "ERC1155InvalidSender",
      "type": "error"
    },
    {
      "inputs": [
        {
          "internalType": "address",
          "name": "operator",
          "type": "address"
        },
        {
          "internalType": "address",
          "name": "owner",
          "type": "address"
        }
      ],
      "name": "ERC1155MissingApprovalForAll",
      "type": "error"
    },
    {
      "inputs": [
        {
          "internalType": "address",
          "name": "owner",
          "type": "address"
        }
      ],
      "name": "OwnableInvalidOwner",
      "type": "error"
    },
    {
      "inputs": [
        {
          "internalType": "address",
          "name": "account",
          "type": "address"
        }
      ],
      "name": "OwnableUnauthorizedAccount",
      "type": "error"
    },
    {
      "anonymous": false,
      "inputs": [
        {
          "indexed": true,
          "internalType": "address",
          "name": "account",
          "type": "address"
        },
        {
          "indexed": true,
          "internalType": "address",
          "name": "operator",
          "type": "address"
        },
        {
          "indexed": false,
          "internalType": "bool",
          "name": "approved",
          "type": "bool"
        }
      ],
      "name": "ApprovalForAll",
      "type": "event"
    },
    {
      "anonymous": false,
      "inputs": [
        {
          "indexed": true,
          "internalType": "address",
          "name": "previousOwner",
          "type": "address"
        },
        {
          "indexed": true,
          "internalType": "address",
          "name": "newOwner",
          "type": "address"
        }
      ],
      "name": "OwnershipTransferred",
      "type": "event"
    },
    {
      "anonymous": false,
      "inputs": [
        {
          "indexed": true,
          "internalType": "uint256",
          "name": "pokemonId",
          "type": "uint256"
        },
        {
          "indexed": false,
          "internalType": "uint256",
          "name": "groundId",
          "type": "uint256"
        },
        {
          "indexed": false,
          "internalType": "uint256",
          "name": "xpGained",
          "type": "uint256"
        }
      ],
      "name": "TrainingCompleted",
      "type": "event"
    },
    {
      "anonymous": false,
      "inputs": [
        {
          "indexed": true,
          "internalType": "uint256",
          "name": "pokemonId",
          "type": "uint256"
        },
        {
          "indexed": false,
          "internalType": "uint256",
          "name": "groundId",
          "type": "uint256"
        }
      ],
      "name": "TrainingStarted",
      "type": "event"
    },
    {
      "anonymous": false,
      "inputs": [
        {
          "indexed": true,
          "internalType": "address",
          "name": "operator",
          "type": "address"
        },
        {
          "indexed": true,
          "internalType": "address",
          "name": "from",
          "type": "address"
        },
        {
          "indexed": true,
          "internalType": "address",
          "name": "to",
          "type": "address"
        },
        {
          "indexed": false,
          "internalType": "uint256[]",
          "name": "ids",
          "type": "uint256[]"
        },
        {
          "indexed": false,
          "internalType": "uint256[]",
          "name": "values",
          "type": "uint256[]"
        }
      ],
      "name": "TransferBatch",
      "type": "event"
    },
    {
      "anonymous": false,
      "inputs": [
        {
          "indexed": true,
          "internalType": "address",
          "name": "operator",
          "type": "address"
        },
        {
          "indexed": true,
          "internalType": "address",
          "name": "from",
          "type": "address"
        },
        {
          "indexed": true,
          "internalType": "address",
          "name": "to",
          "type": "address"
        },
        {
          "indexed": false,
          "internalType": "uint256",
          "name": "id",
          "type": "uint256"
        },
        {
          "indexed": false,
          "internalType": "uint256",
          "name": "value",
          "type": "uint256"
        }
      ],
      "name": "TransferSingle",
      "type": "event"
    },
    {
      "anonymous": false,
      "inputs": [
        {
          "indexed": false,
          "internalType": "string",
          "name": "value",
          "type": "string"
        },
        {
          "indexed": true,
          "internalType": "uint256",
          "name": "id",
          "type": "uint256"
        }
      ],
      "name": "URI",
      "type": "event"
    },
    {
      "inputs": [],
      "name": "BASIC_TRAINING",
      "outputs": [
        {
          "internalType": "uint256",
          "name": "",
          "type": "uint256"
        }
      ],
      "stateMutability": "view",
      "type": "function"
    },
    {
      "inputs": [],
      "name": "BASIC_TRAINING_COST",
      "outputs": [
        {
          "internalType": "uint256",
          "name": "",
          "type": "uint256"
        }
      ],
      "stateMutability": "view",
      "type": "function"
    },
    {
      "inputs": [],
      "name": "FIRE_DOJO",
      "outputs": [
        {
          "internalType": "uint256",
          "name": "",
          "type": "uint256"
        }
      ],
      "stateMutability": "view",
      "type": "function"
    },
    {
      "inputs": [],
      "name": "GRASS_GARDEN",
      "outputs": [
        {
          "internalType": "uint256",
          "name": "",
          "type": "uint256"
        }
      ],
      "stateMutability": "view",
      "type": "function"
    },
    {
      "inputs": [],
      "name": "MIN_TRAINING_TIME",
      "outputs": [
        {
          "internalType": "uint256",
          "name": "",
          "type": "uint256"
        }
      ],
      "stateMutability": "view",
      "type": "function"
    },
    {
      "inputs": [],
      "name": "SPECIALIZED_TRAINING_COST",
      "outputs": [
        {
          "internalType": "uint256",
          "name": "",
          "type": "uint256"
        }
      ],
      "stateMutability": "view",
      "type": "function"
    },
    {
      "inputs": [],
      "name": "TYPE_BONUS_MULTIPLIER",
      "outputs": [
        {
          "internalType": "uint256",
          "name": "",
          "type": "uint256"
        }
      ],
      "stateMutability": "view",
      "type": "function"
    },
    {
      "inputs": [],
      "name": "WATER_TEMPLE",
      "outputs": [
        {
          "internalType": "uint256",
          "name": "",
          "type": "uint256"
        }
      ],
      "stateMutability": "view",
      "type": "function"
    },
    {
      "inputs": [],
      "name": "XP_PER_MINUTE",
      "outputs": [
        {
          "internalType": "uint256",
          "name": "",
          "type": "uint256"
        }
      ],
      "stateMutability": "view",
      "type": "function"
    },
    {
      "inputs": [
        {
          "internalType": "address",
          "name": "account",
          "type": "address"
        },
        {
          "internalType": "uint256",
          "name": "id",
          "type": "uint256"
        }
      ],
      "name": "balanceOf",
      "outputs": [
        {
          "internalType": "uint256",
          "name": "",
          "type": "uint256"
        }
      ],
      "stateMutability": "view",
      "type": "function"
    },
    {
      "inputs": [
        {
          "internalType": "address[]",
          "name": "accounts",
          "type": "address[]"
        },
        {
          "internalType": "uint256[]",
          "name": "ids",
          "type": "uint256[]"
        }
      ],
      "name": "balanceOfBatch",
      "outputs": [
        {
          "internalType": "uint256[]",
          "name": "",
          "type": "uint256[]"
        }
      ],
      "stateMutability": "view",
      "type": "function"
    },
    {
      "inputs": [
        {
          "internalType": "uint256",
          "name": "pokemonId",
          "type": "uint256"
        }
      ],
      "name": "canCompleteTraining",
      "outputs": [
        {
          "internalType": "bool",
          "name": "",
          "type": "bool"
        },
        {
          "internalType": "string",
          "name": "",
          "type": "string"
        }
      ],
      "stateMutability": "view",
      "type": "function"
    },
    {
      "inputs": [
        {
          "internalType": "uint256",
          "name": "pokemonId",
          "type": "uint256"
        }
      ],
      "name": "completeTraining",
      "outputs": [],
      "stateMutability": "nonpayable",
      "type": "function"
    },
    {
      "inputs": [
        {
          "internalType": "uint256",
          "name": "tokenId",
          "type": "uint256"
        }
      ],
      "name": "getPokemonData",
      "outputs": [
        {
          "components": [
            {
              "internalType": "string",
              "name": "name",
              "type": "string"
            },
            {
              "internalType": "string",
              "name": "pokemonType",
              "type": "string"
            },
            {
              "internalType": "uint256",
              "name": "level",
              "type": "uint256"
            },
            {
              "internalType": "uint256",
              "name": "xp",
              "type": "uint256"
            },
            {
              "internalType": "uint256",
              "name": "trainingStartTime",
              "type": "uint256"
            },
            {
              "internalType": "bool",
              "name": "isTraining",
              "type": "bool"
            },
            {
              "internalType": "uint256",
              "name": "trainingGroundId",
              "type": "uint256"
            }
          ],
          "internalType": "struct PokemonNFT.Pokemon",
          "name": "",
          "type": "tuple"
        }
      ],
      "stateMutability": "view",
      "type": "function"
    },
    {
      "inputs": [
        {
          "internalType": "uint256",
          "name": "groundId",
          "type": "uint256"
        }
      ],
      "name": "getTrainingGround",
      "outputs": [
        {
          "components": [
            {
              "internalType": "string",
              "name": "name",
              "type": "string"
            },
            {
              "internalType": "string",
              "name": "requiredType",
              "type": "string"
            },
            {
              "internalType": "uint256",
              "name": "cost",
              "type": "uint256"
            }
          ],
          "internalType": "struct PokemonNFT.TrainingGround",
          "name": "",
          "type": "tuple"
        }
      ],
      "stateMutability": "view",
      "type": "function"
    },
    {
      "inputs": [
        {
          "internalType": "address",
          "name": "",
          "type": "address"
        }
      ],
      "name": "hasStarterPokemon",
      "outputs": [
        {
          "internalType": "bool",
          "name": "",
          "type": "bool"
        }
      ],
      "stateMutability": "view",
      "type": "function"
    },
    {
      "inputs": [
        {
          "internalType": "address",
          "name": "account",
          "type": "address"
        },
        {
          "internalType": "address",
          "name": "operator",
          "type": "address"
        }
      ],
      "name": "isApprovedForAll",
      "outputs": [
        {
          "internalType": "bool",
          "name": "",
          "type": "bool"
        }
      ],
      "stateMutability": "view",
      "type": "function"
    },
    {
      "inputs": [
        {
          "internalType": "uint256",
          "name": "pokemonId",
          "type": "uint256"
        }
      ],
      "name": "mintStarterPokemon",
      "outputs": [],
      "stateMutability": "nonpayable",
      "type": "function"
    },
    {
      "inputs": [],
      "name": "owner",
      "outputs": [
        {
          "internalType": "address",
          "name": "",
          "type": "address"
        }
      ],
      "stateMutability": "view",
      "type": "function"
    },
    {
      "inputs": [],
      "name": "pokeCoin",
      "outputs": [
        {
          "internalType": "contract PokeCoin",
          "name": "",
          "type": "address"
        }
      ],
      "stateMutability": "view",
      "type": "function"
    },
    {
      "inputs": [
        {
          "internalType": "uint256",
          "name": "",
          "type": "uint256"
        }
      ],
      "name": "pokemonData",
      "outputs": [
        {
          "internalType": "string",
          "name": "name",
          "type": "string"
        },
        {
          "internalType": "string",
          "name": "pokemonType",
          "type": "string"
        },
        {
          "internalType": "uint256",
          "name": "level",
          "type": "uint256"
        },
        {
          "internalType": "uint256",
          "name": "xp",
          "type": "uint256"
        },
        {
          "internalType": "uint256",
          "name": "trainingStartTime",
          "type": "uint256"
        },
        {
          "internalType": "bool",
          "name": "isTraining",
          "type": "bool"
        },
        {
          "internalType": "uint256",
          "name": "trainingGroundId",
          "type": "uint256"
        }
      ],
      "stateMutability": "view",
      "type": "function"
    },
    {
      "inputs": [],
      "name": "renounceOwnership",
      "outputs": [],
      "stateMutability": "nonpayable",
      "type": "function"
    },
    {
      "inputs": [
        {
          "internalType": "address",
          "name": "from",
          "type": "address"
        },
        {
          "internalType": "address",
          "name": "to",
          "type": "address"
        },
        {
          "internalType": "uint256[]",
          "name": "ids",
          "type": "uint256[]"
        },
        {
          "internalType": "uint256[]",
          "name": "values",
          "type": "uint256[]"
        },
        {
          "internalType": "bytes",
          "name": "data",
          "type": "bytes"
        }
      ],
      "name": "safeBatchTransferFrom",
      "outputs": [],
      "stateMutability": "nonpayable",
      "type": "function"
    },
    {
      "inputs": [
        {
          "internalType": "address",
          "name": "from",
          "type": "address"
        },
        {
          "internalType": "address",
          "name": "to",
          "type": "address"
        },
        {
          "internalType": "uint256",
          "name": "id",
          "type": "uint256"
        },
        {
          "internalType": "uint256",
          "name": "value",
          "type": "uint256"
        },
        {
          "internalType": "bytes",
          "name": "data",
          "type": "bytes"
        }
      ],
      "name": "safeTransferFrom",
      "outputs": [],
      "stateMutability": "nonpayable",
      "type": "function"
    },
    {
      "inputs": [
        {
          "internalType": "address",
          "name": "operator",
          "type": "address"
        },
        {
          "internalType": "bool",
          "name": "approved",
          "type": "bool"
        }
      ],
      "name": "setApprovalForAll",
      "outputs": [],
      "stateMutability": "nonpayable",
      "type": "function"
    },
    {
      "inputs": [
        {
          "internalType": "string",
          "name": "newBaseURI",
          "type": "string"
        }
      ],
      "name": "setBaseURI",
      "outputs": [],
      "stateMutability": "nonpayable",
      "type": "function"
    },
    {
      "inputs": [
        {
          "internalType": "address",
          "name": "_pokeCoinContract",
          "type": "address"
        }
      ],
      "name": "setPokeCoinContract",
      "outputs": [],
      "stateMutability": "nonpayable",
      "type": "function"
    },
    {
      "inputs": [
        {
          "internalType": "uint256",
          "name": "pokemonId",
          "type": "uint256"
        },
        {
          "internalType": "uint256",
          "name": "groundId",
          "type": "uint256"
        }
      ],
      "name": "startTraining",
      "outputs": [],
      "stateMutability": "nonpayable",
      "type": "function"
    },
    {
      "inputs": [
        {
          "internalType": "bytes4",
          "name": "interfaceId",
          "type": "bytes4"
        }
      ],
      "name": "supportsInterface",
      "outputs": [
        {
          "internalType": "bool",
          "name": "",
          "type": "bool"
        }
      ],
      "stateMutability": "view",
      "type": "function"
    },
    {
      "inputs": [
        {
          "internalType": "uint256",
          "name": "",
          "type": "uint256"
        }
      ],
      "name": "trainingGrounds",
      "outputs": [
        {
          "internalType": "string",
          "name": "name",
          "type": "string"
        },
        {
          "internalType": "string",
          "name": "requiredType",
          "type": "string"
        },
        {
          "internalType": "uint256",
          "name": "cost",
          "type": "uint256"
        }
      ],
      "stateMutability": "view",
      "type": "function"
    },
    {
      "inputs": [
        {
          "internalType": "address",
          "name": "newOwner",
          "type": "address"
        }
      ],
      "name": "transferOwnership",
      "outputs": [],
      "stateMutability": "nonpayable",
      "type": "function"
    },
    {
      "inputs": [
        {
          "internalType": "uint256",
          "name": "tokenId",
          "type": "uint256"
        }
      ],
      "name": "uri",
      "outputs": [
        {
          "internalType": "string",
          "name": "",
          "type": "string"
        }
      ],
      "stateMutability": "view",
      "type": "function"
    }
  ],
  "bytecode": "0x60806040523480156200001157600080fd5b5060408051602081019091526000815233906200002e8162000656565b506001600160a01b0381166200005e57604051631e4fbdf760e01b81526000600482015260240160405180910390fd5b620000698162000668565b506040805161012081018252600960e0820190815268213ab63130b9b0bab960b91b610100830152815281518083018352600580825264477261737360d81b60208381019190915280840192909252928201929092526000606082018190526080820181905260a0820181905260c0820181905260019052600490915280517fabd6e7cb50984ff9c2f3e18a2660c3353dadf4e3291deeb275dae2cd1e44fe059081906200011890826200075f565b50602082015160018201906200012f90826200075f565b5060408201518160020155606082015181600301556080820151816004015560a08201518160050160006101000a81548160ff02191690831515021790555060c082015181600601559050506040518060e001604052806040518060400160405280600a81526020016921b430b936b0b73232b960b11b8152508152602001604051806040016040528060048152602001634669726560e01b81525081526020016005815260200160008152602001600081526020016000151581526020016000815250600460006004815260200190815260200160002060008201518160000190816200021e91906200075f565b50602082015160018201906200023590826200075f565b5060408201518160020155606082015181600301556080820151816004015560a08201518160050160006101000a81548160ff02191690831515021790555060c082015181600601559050506040518060e00160405280604051806040016040528060088152602001675371756972746c6560c01b8152508152602001604051806040016040528060058152602001642bb0ba32b960d91b81525081526020016005815260200160008152602001600081526020016000151581526020016000815250600460006007815260200190815260200160002060008201518160000190816200032391906200075f565b50602082015160018201906200033a90826200075f565b5060408281015160028301556060808401516003840155608080850151600485015560a08086015160058601805460ff191691151591909117905560c09095015160069485015582519485018352600e9185019182526d426173696320547261696e696e6760901b908501528352805160208181018352600080835281860192909252918401819052600190525280517f3e5fec24aa4dc4e5aee2e025e51e1392c72a2500577559fae9665c6d52bd6a31908190620003fa90826200075f565b50602082015160018201906200041190826200075f565b50604091820151600291820155815160a081018352600960608201908152684669726520446f6a6f60b81b608083015281528251808401845260048152634669726560e01b60208281019190915280830191909152678ac7230489e8000093820193909352600091909152600690915280517f8819ef417987f8ae7a81f42cdfb18815282fe989326fbff903d13cf0e03ace29908190620004b390826200075f565b5060208201516001820190620004ca90826200075f565b50604091820151600290910155805160a081018252600c606082019081526b57617465722054656d706c6560a01b608083015281528151808301835260058152642bb0ba32b960d91b60208281019190915280830191909152678ac7230489e80000928201929092526003600052600690915280517f75f96ab15d697e93042dc45b5c896c4b27e89bb6eaf39475c5c371cb2513f7d29081906200056f90826200075f565b50602082015160018201906200058690826200075f565b50604091820151600290910155805160a081018252600c606082019081526b23b930b9b99023b0b93232b760a11b60808301528152815180830183526005815264477261737360d81b60208281019190915280830191909152678ac7230489e80000928201929092526004600052600690915280517fc5069e24aaadb2addc3e52e868fcf3f4f8acf5a87e24300992fd4540c2a87eed9081906200062b90826200075f565b50602082015160018201906200064290826200075f565b50604082015181600201559050506200082b565b60026200066482826200075f565b5050565b600380546001600160a01b038381166001600160a01b0319831681179093556040519116919082907f8be0079c531659141344cd1fd0a4f28419497f9722a3daafe3b4186f6b6457e090600090a35050565b634e487b7160e01b600052604160045260246000fd5b600181811c90821680620006e557607f821691505b6020821081036200070657634e487b7160e01b600052602260045260246000fd5b50919050565b601f8211156200075a57600081815260208120601f850160051c81016020861015620007355750805b601f850160051c820191505b81811015620007565782815560010162000741565b5050505b505050565b81516001600160401b038111156200077b576200077b620006ba565b62000793816200078c8454620006d0565b846200070c565b602080601f831160018114620007cb5760008415620007b25750858301515b600019600386901b1c1916600185901b17855562000756565b600085815260208120601f198616915b82811015620007fc57888601518255948401946001909101908401620007db565b50858210156200081b5787850151600019600388901b60f8161c191681555b5050505050600190811b01905550565b6127d7806200083b6000396000f3fe608060405234801561001057600080fd5b50600436106101ef5760003560e01c80636af783ea1161010f578063c1b2c1ae116100a2578063f17f767a11610071578063f17f767a1461036f578063f242432a14610445578063f2fde38b14610458578063fb1224e51461046b57600080fd5b8063c1b2c1ae146103d6578063de23cfca146103fc578063e47248dc1461041f578063e985e9c51461043257600080fd5b80638da5cb5b116100de5780638da5cb5b146103a2578063a22cb465146103b3578063b8708c42146103c6578063be6c5b7e146103ce57600080fd5b80636af783ea1461035f578063715018a61461036757806376a939e71461036f578063809525471461037757600080fd5b80632c17a522116101875780634f13b164116101565780634f13b1641461030657806355f804b31461032657806362ebe57e146103395780636415dbde1461034c57600080fd5b80632c17a522146102c35780632eb2c2d6146102cb5780633f758568146102de5780634e1273f4146102e657600080fd5b80630fccc072116101c35780630fccc07214610265578063154aa2a81461026d5780632273c74e14610282578063258b36d6146102a257600080fd5b8062fdd58e146101f457806301ffc9a71461021a5780630e89341c1461023d5780630f8ea1c21461025d575b600080fd5b610207610202366004611d21565b61048d565b6040519081526020015b60405180910390f35b61022d610228366004611d61565b6104b5565b6040519015158152602001610211565b61025061024b366004611d85565b610505565b6040516102119190611dee565b610207609681565b610207603c81565b61028061027b366004611e01565b610539565b005b610295610290366004611d85565b610848565b6040516102119190611e23565b6102b56102b0366004611d85565b610a04565b604051610211929190611e9e565b610207600481565b6102806102d936600461200f565b610b1e565b610207600a81565b6102f96102f43660046120b9565b610b85565b60405161021191906121b4565b610319610314366004611d85565b610c5a565b60405161021191906121c7565b610280610334366004612217565b610dcb565b610280610347366004612260565b610de3565b61028061035a366004611d85565b610e0d565b610207600381565b610280610ff5565b610207600181565b60085461038a906001600160a01b031681565b6040516001600160a01b039091168152602001610211565b6003546001600160a01b031661038a565b6102806103c1366004612289565b611009565b610207600281565b610207600581565b6103e96103e4366004611d85565b611014565b60405161021197969594939291906122c0565b61022d61040a366004612260565b60056020526000908152604090205460ff1681565b61028061042d366004611d85565b611163565b61022d610440366004612312565b6112c0565b610280610453366004612345565b6112ee565b610280610466366004612260565b61134d565b61047e610479366004611d85565b61138b565b604051610211939291906123aa565b6000818152602081815260408083206001600160a01b03861684529091529020545b92915050565b60006001600160e01b03198216636cdb3d1360e11b14806104e657506001600160e01b031982166303a24d0760e21b145b806104af57506301ffc9a760e01b6001600160e01b03198316146104af565b60606007610512836114bd565b60405160200161052392919061248d565b6040516020818303038152906040529050919050565b6000610545338461048d565b1161058a5760405162461bcd60e51b815260206004820152601060248201526f2737ba103cb7bab9102837b5b2b6b7b760811b60448201526064015b60405180910390fd5b60008111801561059b575060048111155b6105e75760405162461bcd60e51b815260206004820152601760248201527f496e76616c696420747261696e696e672067726f756e640000000000000000006044820152606401610581565b60008281526004602052604090206005015460ff161561063c5760405162461bcd60e51b815260206004820152601060248201526f416c726561647920747261696e696e6760801b6044820152606401610581565b60008181526006602052604090819020600201546008549151636eb1769f60e11b8152336004820152306024820152909182916001600160a01b039091169063dd62ed3e90604401602060405180830381865afa1580156106a1573d6000803e3d6000fd5b505050506040513d601f19601f820116820180604052508101906106c591906124c2565b10156107135760405162461bcd60e51b815260206004820152601f60248201527f496e73756666696369656e7420506f6b65436f696e20616c6c6f77616e6365006044820152606401610581565b6008546040516323b872dd60e01b8152336004820152306024820152604481018390526001600160a01b03909116906323b872dd906064016020604051808303816000875af115801561076a573d6000803e3d6000fd5b505050506040513d601f19601f8201168201806040525081019061078e91906124db565b6107da5760405162461bcd60e51b815260206004820152601860248201527f506f6b65436f696e207472616e73666572206661696c656400000000000000006044820152606401610581565b60008381526004602081905260409182902060058101805460ff1916600117905542918101919091556006018390555183907f9d5819c7ffd7580f18ec65632cf8672da6a217ee456af540fff3b0ea800c63059061083b9085815260200190565b60405180910390a2505050565b61088a6040518060e001604052806060815260200160608152602001600081526020016000815260200160008152602001600015158152602001600081525090565b60008281526004602052604090819020815160e081019092528054829082906108b2906123e0565b80601f01602080910402602001604051908101604052809291908181526020018280546108de906123e0565b801561092b5780601f106109005761010080835404028352916020019161092b565b820191906000526020600020905b81548152906001019060200180831161090e57829003601f168201915b50505050508152602001600182018054610944906123e0565b80601f0160208091040260200160405190810160405280929190818152602001828054610970906123e0565b80156109bd5780601f10610992576101008083540402835291602001916109bd565b820191906000526020600020905b8154815290600101906020018083116109a057829003601f168201915b5050509183525050600282015460208201526003820154604082015260048201546060820152600582015460ff161515608082015260069091015460a09091015292915050565b60006060610a12338461048d565b600003610a4a57505060408051808201909152601081526f2737ba103cb7bab9102837b5b2b6b7b760811b6020820152600092909150565b60008381526004602052604090206005015460ff16610aa157505060408051808201909152601781527f506f6b656d6f6e206973206e6f7420747261696e696e670000000000000000006020820152600092909150565b60008381526004602081905260409091200154610ac090603c9061250e565b421015610b0557505060408051808201909152601a81527f547261696e696e672074696d65206e6f7420636f6d706c6574650000000000006020820152600092909150565b5050604080516020810190915260008152600192909150565b336001600160a01b0386168114801590610b3f5750610b3d86826112c0565b155b15610b705760405163711bec9160e11b81526001600160a01b03808316600483015287166024820152604401610581565b610b7d8686868686611550565b505050505050565b60608151835114610bb65781518351604051635b05999160e01b815260048101929092526024820152604401610581565b6000835167ffffffffffffffff811115610bd257610bd2611ec1565b604051908082528060200260200182016040528015610bfb578160200160208202803683370190505b50905060005b8451811015610c5257602080820286010151610c259060208084028701015161048d565b828281518110610c3757610c37612521565b6020908102919091010152610c4b81612537565b9050610c01565b509392505050565b610c7e60405180606001604052806060815260200160608152602001600081525090565b60008281526006602052604090819020815160608101909252805482908290610ca6906123e0565b80601f0160208091040260200160405190810160405280929190818152602001828054610cd2906123e0565b8015610d1f5780601f10610cf457610100808354040283529160200191610d1f565b820191906000526020600020905b815481529060010190602001808311610d0257829003601f168201915b50505050508152602001600182018054610d38906123e0565b80601f0160208091040260200160405190810160405280929190818152602001828054610d64906123e0565b8015610db15780601f10610d8657610100808354040283529160200191610db1565b820191906000526020600020905b815481529060010190602001808311610d9457829003601f168201915b505050505081526020016002820154815250509050919050565b610dd36115b0565b6007610ddf828261259b565b5050565b610deb6115b0565b600880546001600160a01b0319166001600160a01b0392909216919091179055565b600080610e1983610a04565b91509150818190610e3d5760405162461bcd60e51b81526004016105819190611dee565b50600083815260046020819052604082206006810154910154909190610e63904261265b565b90506000610e72603c8361266e565b90506000610e81600183612690565b905060066000858152602001908152602001600020600101604051610ea691906126a7565b6040805191829003822060008a81526004602052919091209091610ecd91600101906126a7565b604051809103902003610ef4576064610ee7609683612690565b610ef1919061266e565b90505b60008781526004602052604081206003018054839290610f1590849061250e565b90915550505b600087815260046020526040902060030154606411610f88576000878152600460205260408120600201805460019290610f5690849061250e565b90915550506000878152600460205260408120600301805460649290610f7d90849061265b565b90915550610f1b9050565b600087815260046020818152604080842060058101805460ff19169055928301849055600690920192909255805186815291820183905288917f0ccc42750d9dce02f33355c35d96f5b942523df7acac68e43b23572a50c9f25f910160405180910390a250505050505050565b610ffd6115b0565b61100760006115dd565b565b610ddf33838361162f565b60046020526000908152604090208054819061102f906123e0565b80601f016020809104026020016040519081016040528092919081815260200182805461105b906123e0565b80156110a85780601f1061107d576101008083540402835291602001916110a8565b820191906000526020600020905b81548152906001019060200180831161108b57829003601f168201915b5050505050908060010180546110bd906123e0565b80601f01602080910402602001604051908101604052809291908181526020018280546110e9906123e0565b80156111365780601f1061110b57610100808354040283529160200191611136565b820191906000526020600020905b81548152906001019060200180831161111957829003601f168201915b505050506002830154600384015460048501546005860154600690960154949592949193509160ff169087565b80600114806111725750806004145b8061117d5750806007145b6111c95760405162461bcd60e51b815260206004820152601760248201527f496e76616c6964207374617274657220506f6b656d6f6e0000000000000000006044820152606401610581565b3360009081526005602052604090205460ff16156112295760405162461bcd60e51b815260206004820152601b60248201527f416c726561647920686173207374617274657220506f6b656d6f6e00000000006044820152606401610581565b61124533826001604051806020016040528060008152506116c5565b3360008181526005602052604090819020805460ff191660011790556008549051630178e1d360e31b815260048101929092526001600160a01b031690630bc70e9890602401600060405180830381600087803b1580156112a557600080fd5b505af11580156112b9573d6000803e3d6000fd5b5050505050565b6001600160a01b03918216600090815260016020908152604080832093909416825291909152205460ff1690565b336001600160a01b038616811480159061130f575061130d86826112c0565b155b156113405760405163711bec9160e11b81526001600160a01b03808316600483015287166024820152604401610581565b610b7d8686868686611722565b6113556115b0565b6001600160a01b03811661137f57604051631e4fbdf760e01b815260006004820152602401610581565b611388816115dd565b50565b6006602052600090815260409020805481906113a6906123e0565b80601f01602080910402602001604051908101604052809291908181526020018280546113d2906123e0565b801561141f5780601f106113f45761010080835404028352916020019161141f565b820191906000526020600020905b81548152906001019060200180831161140257829003601f168201915b505050505090806001018054611434906123e0565b80601f0160208091040260200160405190810160405280929190818152602001828054611460906123e0565b80156114ad5780601f10611482576101008083540402835291602001916114ad565b820191906000526020600020905b81548152906001019060200180831161149057829003601f168201915b5050505050908060020154905083565b606060006114ca836117b0565b600101905060008167ffffffffffffffff8111156114ea576114ea611ec1565b6040519080825280601f01601f191660200182016040528015611514576020820181803683370190505b5090508181016020015b600019016f181899199a1a9b1b9c1cb0b131b232b360811b600a86061a8153600a850494508461151e57509392505050565b6001600160a01b03841661157a57604051632bfa23e760e11b815260006004820152602401610581565b6001600160a01b0385166115a357604051626a0d4560e21b815260006004820152602401610581565b6112b98585858585611888565b6003546001600160a01b031633146110075760405163118cdaa760e01b8152336004820152602401610581565b600380546001600160a01b038381166001600160a01b0319831681179093556040519116919082907f8be0079c531659141344cd1fd0a4f28419497f9722a3daafe3b4186f6b6457e090600090a35050565b6001600160a01b0382166116585760405162ced3e160e81b815260006004820152602401610581565b6001600160a01b03838116600081815260016020908152604080832094871680845294825291829020805460ff191686151590811790915591519182527f17307eab39ab6107e8899845ad3d59bd9653f200f220920489ca2b5937696c31910160405180910390a3505050565b6001600160a01b0384166116ef57604051632bfa23e760e11b815260006004820152602401610581565b60408051600180825260208201869052818301908152606082018590526080820190925290610b7d600087848487611888565b6001600160a01b03841661174c57604051632bfa23e760e11b815260006004820152602401610581565b6001600160a01b03851661177557604051626a0d4560e21b815260006004820152602401610581565b604080516001808252602082018690528183019081526060820185905260808201909252906117a78787848487611888565b50505050505050565b60008072184f03e93ff9f4daa797ed6e38ed64bf6a1f0160401b83106117ef5772184f03e93ff9f4daa797ed6e38ed64bf6a1f0160401b830492506040015b6d04ee2d6d415b85acef8100000000831061181b576d04ee2d6d415b85acef8100000000830492506020015b662386f26fc10000831061183957662386f26fc10000830492506010015b6305f5e1008310611851576305f5e100830492506008015b612710831061186557612710830492506004015b60648310611877576064830492506002015b600a83106104af5760010192915050565b611894858585856118db565b6001600160a01b038416156112b957825133906001036118cd57602084810151908401516118c6838989858589611af8565b5050610b7d565b610b7d818787878787611c1c565b805182511461190a5781518151604051635b05999160e01b815260048101929092526024820152604401610581565b3360005b8351811015611a19576020818102858101820151908501909101516001600160a01b038816156119c1576000828152602081815260408083206001600160a01b038c1684529091529020548181101561199a576040516303dee4c560e01b81526001600160a01b038a166004820152602481018290526044810183905260648101849052608401610581565b6000838152602081815260408083206001600160a01b038d16845290915290209082900390555b6001600160a01b03871615611a06576000828152602081815260408083206001600160a01b038b16845290915281208054839290611a0090849061250e565b90915550505b505080611a1290612537565b905061190e565b508251600103611a9a5760208301516000906020840151909150856001600160a01b0316876001600160a01b0316846001600160a01b03167fc3d58168c5ae7397731d063d5bbf3d657854427343f4c083240f7aacaa2d0f628585604051611a8b929190918252602082015260400190565b60405180910390a450506112b9565b836001600160a01b0316856001600160a01b0316826001600160a01b03167f4a39dc06d4c0dbc64b70af90fd698a233a518aa5d07e595d983b8c0526c8f7fb8686604051611ae99291906126b3565b60405180910390a45050505050565b6001600160a01b0384163b15610b7d5760405163f23a6e6160e01b81526001600160a01b0385169063f23a6e6190611b3c90899089908890889088906004016126e1565b6020604051808303816000875af1925050508015611b77575060408051601f3d908101601f19168201909252611b7491810190612726565b60015b611be0573d808015611ba5576040519150601f19603f3d011682016040523d82523d6000602084013e611baa565b606091505b508051600003611bd857604051632bfa23e760e11b81526001600160a01b0386166004820152602401610581565b805181602001fd5b6001600160e01b0319811663f23a6e6160e01b146117a757604051632bfa23e760e11b81526001600160a01b0386166004820152602401610581565b6001600160a01b0384163b15610b7d5760405163bc197c8160e01b81526001600160a01b0385169063bc197c8190611c609089908990889088908890600401612743565b6020604051808303816000875af1925050508015611c9b575060408051601f3d908101601f19168201909252611c9891810190612726565b60015b611cc9573d808015611ba5576040519150601f19603f3d011682016040523d82523d6000602084013e611baa565b6001600160e01b0319811663bc197c8160e01b146117a757604051632bfa23e760e11b81526001600160a01b0386166004820152602401610581565b80356001600160a01b0381168114611d1c57600080fd5b919050565b60008060408385031215611d3457600080fd5b611d3d83611d05565b946020939093013593505050565b6001600160e01b03198116811461138857600080fd5b600060208284031215611d7357600080fd5b8135611d7e81611d4b565b9392505050565b600060208284031215611d9757600080fd5b5035919050565b60005b83811015611db9578181015183820152602001611da1565b50506000910152565b60008151808452611dda816020860160208601611d9e565b601f01601f19169290920160200192915050565b602081526000611d7e6020830184611dc2565b60008060408385031215611e1457600080fd5b50508035926020909101359150565b602081526000825160e06020840152611e40610100840182611dc2565b90506020840151601f19848303016040850152611e5d8282611dc2565b9150506040840151606084015260608401516080840152608084015160a084015260a0840151151560c084015260c084015160e08401528091505092915050565b8215158152604060208201526000611eb96040830184611dc2565b949350505050565b634e487b7160e01b600052604160045260246000fd5b604051601f8201601f1916810167ffffffffffffffff81118282101715611f0057611f00611ec1565b604052919050565b600067ffffffffffffffff821115611f2257611f22611ec1565b5060051b60200190565b600082601f830112611f3d57600080fd5b81356020611f52611f4d83611f08565b611ed7565b82815260059290921b84018101918181019086841115611f7157600080fd5b8286015b84811015611f8c5780358352918301918301611f75565b509695505050505050565b600067ffffffffffffffff831115611fb157611fb1611ec1565b611fc4601f8401601f1916602001611ed7565b9050828152838383011115611fd857600080fd5b828260208301376000602084830101529392505050565b600082601f83011261200057600080fd5b611d7e83833560208501611f97565b600080600080600060a0868803121561202757600080fd5b61203086611d05565b945061203e60208701611d05565b9350604086013567ffffffffffffffff8082111561205b57600080fd5b61206789838a01611f2c565b9450606088013591508082111561207d57600080fd5b61208989838a01611f2c565b9350608088013591508082111561209f57600080fd5b506120ac88828901611fef565b9150509295509295909350565b600080604083850312156120cc57600080fd5b823567ffffffffffffffff808211156120e457600080fd5b818501915085601f8301126120f857600080fd5b81356020612108611f4d83611f08565b82815260059290921b8401810191818101908984111561212757600080fd5b948201945b8386101561214c5761213d86611d05565b8252948201949082019061212c565b9650508601359250508082111561216257600080fd5b5061216f85828601611f2c565b9150509250929050565b600081518084526020808501945080840160005b838110156121a95781518752958201959082019060010161218d565b509495945050505050565b602081526000611d7e6020830184612179565b6020815260008251606060208401526121e36080840182611dc2565b90506020840151601f198483030160408501526122008282611dc2565b915050604084015160608401528091505092915050565b60006020828403121561222957600080fd5b813567ffffffffffffffff81111561224057600080fd5b8201601f8101841361225157600080fd5b611eb984823560208401611f97565b60006020828403121561227257600080fd5b611d7e82611d05565b801515811461138857600080fd5b6000806040838503121561229c57600080fd5b6122a583611d05565b915060208301356122b58161227b565b809150509250929050565b60e0815260006122d360e083018a611dc2565b82810360208401526122e5818a611dc2565b6040840198909852505060608101949094526080840192909252151560a083015260c09091015292915050565b6000806040838503121561232557600080fd5b61232e83611d05565b915061233c60208401611d05565b90509250929050565b600080600080600060a0868803121561235d57600080fd5b61236686611d05565b945061237460208701611d05565b93506040860135925060608601359150608086013567ffffffffffffffff81111561239e57600080fd5b6120ac88828901611fef565b6060815260006123bd6060830186611dc2565b82810360208401526123cf8186611dc2565b915050826040830152949350505050565b600181811c908216806123f457607f821691505b60208210810361241457634e487b7160e01b600052602260045260246000fd5b50919050565b60008154612427816123e0565b6001828116801561243f576001811461245457612483565b60ff1984168752821515830287019450612483565b8560005260208060002060005b8581101561247a5781548a820152908401908201612461565b50505082870194505b5050505092915050565b6000612499828561241a565b83516124a9818360208801611d9e565b64173539b7b760d91b9101908152600501949350505050565b6000602082840312156124d457600080fd5b5051919050565b6000602082840312156124ed57600080fd5b8151611d7e8161227b565b634e487b7160e01b600052601160045260246000fd5b808201808211156104af576104af6124f8565b634e487b7160e01b600052603260045260246000fd5b600060018201612549576125496124f8565b5060010190565b601f82111561259657600081815260208120601f850160051c810160208610156125775750805b601f850160051c820191505b81811015610b7d57828155600101612583565b505050565b815167ffffffffffffffff8111156125b5576125b5611ec1565b6125c9816125c384546123e0565b84612550565b602080601f8311600181146125fe57600084156125e65750858301515b600019600386901b1c1916600185901b178555610b7d565b600085815260208120601f198616915b8281101561262d5788860151825594840194600190910190840161260e565b508582101561264b5787850151600019600388901b60f8161c191681555b5050505050600190811b01905550565b818103818111156104af576104af6124f8565b60008261268b57634e487b7160e01b600052601260045260246000fd5b500490565b80820281158282048414176104af576104af6124f8565b6000611d7e828461241a565b6040815260006126c66040830185612179565b82810360208401526126d88185612179565b95945050505050565b6001600160a01b03868116825285166020820152604081018490526060810183905260a06080820181905260009061271b90830184611dc2565b979650505050505050565b60006020828403121561273857600080fd5b8151611d7e81611d4b565b6001600160a01b0386811682528516602082015260a06040820181905260009061276f90830186612179565b82810360608401526127818186612179565b905082810360808401526127958185611dc2565b9897505050505050505056fea264697066735822122025860e77c5d29f3e695dbc39bea5a8f06fb65d23ded58d3bd379ad165d64308c64736f6c63430008140033",
  "linkReferences": {},
  "deployedLinkReferences": {}
}