{
  "_format": "hh-sol-artifact-1",
  "contractName": "PokemonNFT",
  "sourceName": "contracts/PokeContract.sol",
  "abi": [
    {
      "inputs": [],
      "stateMutability": "nonpayable",
      "type": "constructor"
    },
    {
      "inputs": [
        {
          "internalType": "address",
          "name": "sender",
          "type": "address"
        },
        {
          "internalType": "uint256",
          "name": "balance",
          "type": "uint256"
        },
        {
          "internalType": "uint256",
          "name": "needed",
          "type": "uint256"
        },
        {
          "internalType": "uint256",
          "name": "tokenId",
          "type": "uint256"
        }
      ],
      "name": "ERC1155InsufficientBalance",
      "type": "error"
    },
    {
      "inputs": [
        {
          "internalType": "address",
          "name": "approver",
          "type": "address"
        }
      ],
      "name": "ERC1155InvalidApprover",
      "type": "error"
    },
    {
      "inputs": [
        {
          "internalType": "uint256",
          "name": "idsLength",
          "type": "uint256"
        },
        {
          "internalType": "uint256",
          "name": "valuesLength",
          "type": "uint256"
        }
      ],
      "name": "ERC1155InvalidArrayLength",
      "type": "error"
    },
    {
      "inputs": [
        {
          "internalType": "address",
          "name": "operator",
          "type": "address"
        }
      ],
      "name": "ERC1155InvalidOperator",
      "type": "error"
    },
    {
      "inputs": [
        {
          "internalType": "address",
          "name": "receiver",
          "type": "address"
        }
      ],
      "name": "ERC1155InvalidReceiver",
      "type": "error"
    },
    {
      "inputs": [
        {
          "internalType": "address",
          "name": "sender",
          "type": "address"
        }
      ],
      "name": "ERC1155InvalidSender",
      "type": "error"
    },
    {
      "inputs": [
        {
          "internalType": "address",
          "name": "operator",
          "type": "address"
        },
        {
          "internalType": "address",
          "name": "owner",
          "type": "address"
        }
      ],
      "name": "ERC1155MissingApprovalForAll",
      "type": "error"
    },
    {
      "inputs": [
        {
          "internalType": "address",
          "name": "owner",
          "type": "address"
        }
      ],
      "name": "OwnableInvalidOwner",
      "type": "error"
    },
    {
      "inputs": [
        {
          "internalType": "address",
          "name": "account",
          "type": "address"
        }
      ],
      "name": "OwnableUnauthorizedAccount",
      "type": "error"
    },
    {
      "anonymous": false,
      "inputs": [
        {
          "indexed": true,
          "internalType": "address",
          "name": "account",
          "type": "address"
        },
        {
          "indexed": true,
          "internalType": "address",
          "name": "operator",
          "type": "address"
        },
        {
          "indexed": false,
          "internalType": "bool",
          "name": "approved",
          "type": "bool"
        }
      ],
      "name": "ApprovalForAll",
      "type": "event"
    },
    {
      "anonymous": false,
      "inputs": [
        {
          "indexed": true,
          "internalType": "address",
          "name": "previousOwner",
          "type": "address"
        },
        {
          "indexed": true,
          "internalType": "address",
          "name": "newOwner",
          "type": "address"
        }
      ],
      "name": "OwnershipTransferred",
      "type": "event"
    },
    {
      "anonymous": false,
      "inputs": [
        {
          "indexed": true,
          "internalType": "uint256",
          "name": "pokemonId",
          "type": "uint256"
        },
        {
          "indexed": false,
          "internalType": "uint256",
          "name": "groundId",
          "type": "uint256"
        },
        {
          "indexed": false,
          "internalType": "uint256",
          "name": "xpGained",
          "type": "uint256"
        }
      ],
      "name": "TrainingCompleted",
      "type": "event"
    },
    {
      "anonymous": false,
      "inputs": [
        {
          "indexed": true,
          "internalType": "uint256",
          "name": "pokemonId",
          "type": "uint256"
        },
        {
          "indexed": false,
          "internalType": "uint256",
          "name": "groundId",
          "type": "uint256"
        }
      ],
      "name": "TrainingStarted",
      "type": "event"
    },
    {
      "anonymous": false,
      "inputs": [
        {
          "indexed": true,
          "internalType": "address",
          "name": "operator",
          "type": "address"
        },
        {
          "indexed": true,
          "internalType": "address",
          "name": "from",
          "type": "address"
        },
        {
          "indexed": true,
          "internalType": "address",
          "name": "to",
          "type": "address"
        },
        {
          "indexed": false,
          "internalType": "uint256[]",
          "name": "ids",
          "type": "uint256[]"
        },
        {
          "indexed": false,
          "internalType": "uint256[]",
          "name": "values",
          "type": "uint256[]"
        }
      ],
      "name": "TransferBatch",
      "type": "event"
    },
    {
      "anonymous": false,
      "inputs": [
        {
          "indexed": true,
          "internalType": "address",
          "name": "operator",
          "type": "address"
        },
        {
          "indexed": true,
          "internalType": "address",
          "name": "from",
          "type": "address"
        },
        {
          "indexed": true,
          "internalType": "address",
          "name": "to",
          "type": "address"
        },
        {
          "indexed": false,
          "internalType": "uint256",
          "name": "id",
          "type": "uint256"
        },
        {
          "indexed": false,
          "internalType": "uint256",
          "name": "value",
          "type": "uint256"
        }
      ],
      "name": "TransferSingle",
      "type": "event"
    },
    {
      "anonymous": false,
      "inputs": [
        {
          "indexed": false,
          "internalType": "string",
          "name": "value",
          "type": "string"
        },
        {
          "indexed": true,
          "internalType": "uint256",
          "name": "id",
          "type": "uint256"
        }
      ],
      "name": "URI",
      "type": "event"
    },
    {
      "inputs": [],
      "name": "BASIC_TRAINING",
      "outputs": [
        {
          "internalType": "uint256",
          "name": "",
          "type": "uint256"
        }
      ],
      "stateMutability": "view",
      "type": "function"
    },
    {
      "inputs": [],
      "name": "BASIC_TRAINING_COST",
      "outputs": [
        {
          "internalType": "uint256",
          "name": "",
          "type": "uint256"
        }
      ],
      "stateMutability": "view",
      "type": "function"
    },
    {
      "inputs": [],
      "name": "FIRE_DOJO",
      "outputs": [
        {
          "internalType": "uint256",
          "name": "",
          "type": "uint256"
        }
      ],
      "stateMutability": "view",
      "type": "function"
    },
    {
      "inputs": [],
      "name": "GRASS_GARDEN",
      "outputs": [
        {
          "internalType": "uint256",
          "name": "",
          "type": "uint256"
        }
      ],
      "stateMutability": "view",
      "type": "function"
    },
    {
      "inputs": [],
      "name": "MIN_TRAINING_TIME",
      "outputs": [
        {
          "internalType": "uint256",
          "name": "",
          "type": "uint256"
        }
      ],
      "stateMutability": "view",
      "type": "function"
    },
    {
      "inputs": [],
      "name": "SPECIALIZED_TRAINING_COST",
      "outputs": [
        {
          "internalType": "uint256",
          "name": "",
          "type": "uint256"
        }
      ],
      "stateMutability": "view",
      "type": "function"
    },
    {
      "inputs": [],
      "name": "TYPE_BONUS_MULTIPLIER",
      "outputs": [
        {
          "internalType": "uint256",
          "name": "",
          "type": "uint256"
        }
      ],
      "stateMutability": "view",
      "type": "function"
    },
    {
      "inputs": [],
      "name": "WATER_TEMPLE",
      "outputs": [
        {
          "internalType": "uint256",
          "name": "",
          "type": "uint256"
        }
      ],
      "stateMutability": "view",
      "type": "function"
    },
    {
      "inputs": [],
      "name": "XP_PER_MINUTE",
      "outputs": [
        {
          "internalType": "uint256",
          "name": "",
          "type": "uint256"
        }
      ],
      "stateMutability": "view",
      "type": "function"
    },
    {
      "inputs": [
        {
          "internalType": "address",
          "name": "account",
          "type": "address"
        },
        {
          "internalType": "uint256",
          "name": "id",
          "type": "uint256"
        }
      ],
      "name": "balanceOf",
      "outputs": [
        {
          "internalType": "uint256",
          "name": "",
          "type": "uint256"
        }
      ],
      "stateMutability": "view",
      "type": "function"
    },
    {
      "inputs": [
        {
          "internalType": "address[]",
          "name": "accounts",
          "type": "address[]"
        },
        {
          "internalType": "uint256[]",
          "name": "ids",
          "type": "uint256[]"
        }
      ],
      "name": "balanceOfBatch",
      "outputs": [
        {
          "internalType": "uint256[]",
          "name": "",
          "type": "uint256[]"
        }
      ],
      "stateMutability": "view",
      "type": "function"
    },
    {
      "inputs": [
        {
          "internalType": "uint256",
          "name": "uuid",
          "type": "uint256"
        }
      ],
      "name": "canCompleteTraining",
      "outputs": [
        {
          "internalType": "bool",
          "name": "",
          "type": "bool"
        },
        {
          "internalType": "string",
          "name": "",
          "type": "string"
        }
      ],
      "stateMutability": "view",
      "type": "function"
    },
    {
      "inputs": [
        {
          "internalType": "uint256",
          "name": "uuid",
          "type": "uint256"
        }
      ],
      "name": "completeTraining",
      "outputs": [],
      "stateMutability": "nonpayable",
      "type": "function"
    },
    {
      "inputs": [
        {
          "internalType": "uint256",
          "name": "tokenId",
          "type": "uint256"
        }
      ],
      "name": "getPokemonData",
      "outputs": [
        {
          "components": [
            {
              "internalType": "uint256",
              "name": "uuid",
              "type": "uint256"
            },
            {
              "internalType": "string",
              "name": "name",
              "type": "string"
            },
            {
              "internalType": "string",
              "name": "pokemonType",
              "type": "string"
            },
            {
              "internalType": "uint256",
              "name": "level",
              "type": "uint256"
            },
            {
              "internalType": "uint256",
              "name": "xp",
              "type": "uint256"
            },
            {
              "internalType": "uint256",
              "name": "trainingStartTime",
              "type": "uint256"
            },
            {
              "internalType": "bool",
              "name": "isTraining",
              "type": "bool"
            },
            {
              "internalType": "uint256",
              "name": "trainingGroundId",
              "type": "uint256"
            }
          ],
          "internalType": "struct PokemonNFT.Pokemon",
          "name": "",
          "type": "tuple"
        }
      ],
      "stateMutability": "view",
      "type": "function"
    },
    {
      "inputs": [
        {
          "internalType": "uint256",
          "name": "tokenId",
          "type": "uint256"
        }
      ],
      "name": "getPokemonUuids",
      "outputs": [
        {
          "internalType": "uint256[]",
          "name": "",
          "type": "uint256[]"
        }
      ],
      "stateMutability": "view",
      "type": "function"
    },
    {
      "inputs": [
        {
          "internalType": "uint256",
          "name": "groundId",
          "type": "uint256"
        }
      ],
      "name": "getTrainingGround",
      "outputs": [
        {
          "components": [
            {
              "internalType": "string",
              "name": "name",
              "type": "string"
            },
            {
              "internalType": "string",
              "name": "requiredType",
              "type": "string"
            },
            {
              "internalType": "uint256",
              "name": "cost",
              "type": "uint256"
            }
          ],
          "internalType": "struct PokemonNFT.TrainingGround",
          "name": "",
          "type": "tuple"
        }
      ],
      "stateMutability": "view",
      "type": "function"
    },
    {
      "inputs": [
        {
          "internalType": "address",
          "name": "",
          "type": "address"
        }
      ],
      "name": "hasStarterPokemon",
      "outputs": [
        {
          "internalType": "bool",
          "name": "",
          "type": "bool"
        }
      ],
      "stateMutability": "view",
      "type": "function"
    },
    {
      "inputs": [
        {
          "internalType": "address",
          "name": "account",
          "type": "address"
        },
        {
          "internalType": "address",
          "name": "operator",
          "type": "address"
        }
      ],
      "name": "isApprovedForAll",
      "outputs": [
        {
          "internalType": "bool",
          "name": "",
          "type": "bool"
        }
      ],
      "stateMutability": "view",
      "type": "function"
    },
    {
      "inputs": [
        {
          "internalType": "uint256",
          "name": "pokemonId",
          "type": "uint256"
        }
      ],
      "name": "mintStarterPokemon",
      "outputs": [],
      "stateMutability": "nonpayable",
      "type": "function"
    },
    {
      "inputs": [],
      "name": "owner",
      "outputs": [
        {
          "internalType": "address",
          "name": "",
          "type": "address"
        }
      ],
      "stateMutability": "view",
      "type": "function"
    },
    {
      "inputs": [],
      "name": "pokeCoin",
      "outputs": [
        {
          "internalType": "contract PokeCoin",
          "name": "",
          "type": "address"
        }
      ],
      "stateMutability": "view",
      "type": "function"
    },
    {
      "inputs": [
        {
          "internalType": "uint256",
          "name": "",
          "type": "uint256"
        }
      ],
      "name": "pokemonData",
      "outputs": [
        {
          "internalType": "uint256",
          "name": "uuid",
          "type": "uint256"
        },
        {
          "internalType": "string",
          "name": "name",
          "type": "string"
        },
        {
          "internalType": "string",
          "name": "pokemonType",
          "type": "string"
        },
        {
          "internalType": "uint256",
          "name": "level",
          "type": "uint256"
        },
        {
          "internalType": "uint256",
          "name": "xp",
          "type": "uint256"
        },
        {
          "internalType": "uint256",
          "name": "trainingStartTime",
          "type": "uint256"
        },
        {
          "internalType": "bool",
          "name": "isTraining",
          "type": "bool"
        },
        {
          "internalType": "uint256",
          "name": "trainingGroundId",
          "type": "uint256"
        }
      ],
      "stateMutability": "view",
      "type": "function"
    },
    {
      "inputs": [],
      "name": "renounceOwnership",
      "outputs": [],
      "stateMutability": "nonpayable",
      "type": "function"
    },
    {
      "inputs": [
        {
          "internalType": "address",
          "name": "from",
          "type": "address"
        },
        {
          "internalType": "address",
          "name": "to",
          "type": "address"
        },
        {
          "internalType": "uint256[]",
          "name": "ids",
          "type": "uint256[]"
        },
        {
          "internalType": "uint256[]",
          "name": "values",
          "type": "uint256[]"
        },
        {
          "internalType": "bytes",
          "name": "data",
          "type": "bytes"
        }
      ],
      "name": "safeBatchTransferFrom",
      "outputs": [],
      "stateMutability": "nonpayable",
      "type": "function"
    },
    {
      "inputs": [
        {
          "internalType": "address",
          "name": "from",
          "type": "address"
        },
        {
          "internalType": "address",
          "name": "to",
          "type": "address"
        },
        {
          "internalType": "uint256",
          "name": "id",
          "type": "uint256"
        },
        {
          "internalType": "uint256",
          "name": "value",
          "type": "uint256"
        },
        {
          "internalType": "bytes",
          "name": "data",
          "type": "bytes"
        }
      ],
      "name": "safeTransferFrom",
      "outputs": [],
      "stateMutability": "nonpayable",
      "type": "function"
    },
    {
      "inputs": [
        {
          "internalType": "address",
          "name": "operator",
          "type": "address"
        },
        {
          "internalType": "bool",
          "name": "approved",
          "type": "bool"
        }
      ],
      "name": "setApprovalForAll",
      "outputs": [],
      "stateMutability": "nonpayable",
      "type": "function"
    },
    {
      "inputs": [
        {
          "internalType": "string",
          "name": "newBaseURI",
          "type": "string"
        }
      ],
      "name": "setBaseURI",
      "outputs": [],
      "stateMutability": "nonpayable",
      "type": "function"
    },
    {
      "inputs": [
        {
          "internalType": "address",
          "name": "_pokeCoinContract",
          "type": "address"
        }
      ],
      "name": "setPokeCoinContract",
      "outputs": [],
      "stateMutability": "nonpayable",
      "type": "function"
    },
    {
      "inputs": [
        {
          "internalType": "uint256",
          "name": "uuid",
          "type": "uint256"
        },
        {
          "internalType": "uint256",
          "name": "groundId",
          "type": "uint256"
        }
      ],
      "name": "startTraining",
      "outputs": [],
      "stateMutability": "nonpayable",
      "type": "function"
    },
    {
      "inputs": [
        {
          "internalType": "bytes4",
          "name": "interfaceId",
          "type": "bytes4"
        }
      ],
      "name": "supportsInterface",
      "outputs": [
        {
          "internalType": "bool",
          "name": "",
          "type": "bool"
        }
      ],
      "stateMutability": "view",
      "type": "function"
    },
    {
      "inputs": [
        {
          "internalType": "uint256",
          "name": "",
          "type": "uint256"
        }
      ],
      "name": "trainingGrounds",
      "outputs": [
        {
          "internalType": "string",
          "name": "name",
          "type": "string"
        },
        {
          "internalType": "string",
          "name": "requiredType",
          "type": "string"
        },
        {
          "internalType": "uint256",
          "name": "cost",
          "type": "uint256"
        }
      ],
      "stateMutability": "view",
      "type": "function"
    },
    {
      "inputs": [
        {
          "internalType": "address",
          "name": "newOwner",
          "type": "address"
        }
      ],
      "name": "transferOwnership",
      "outputs": [],
      "stateMutability": "nonpayable",
      "type": "function"
    },
    {
      "inputs": [
        {
          "internalType": "uint256",
          "name": "tokenId",
          "type": "uint256"
        }
      ],
      "name": "uri",
      "outputs": [
        {
          "internalType": "string",
          "name": "",
          "type": "string"
        }
      ],
      "stateMutability": "view",
      "type": "function"
    }
  ],
  "bytecode": "0x608060405260016004553480156200001657600080fd5b5060408051602081019091526000815233906200003381620006c0565b506001600160a01b0381166200006357604051631e4fbdf760e01b81526000600482015260240160405180910390fd5b6200006e81620006d2565b506004805460009182620000828362000724565b909155506004805491925060009190826200009d8362000724565b90915550600480549192506000919082620000b88362000724565b909155506040805161010081018252858152815180830183526009815268213ab63130b9b0bab960b91b60208281019190915280830191825283518085018552600580825264477261737360d81b82840152848601919091526060840181905260006080850181905260a0850181905260c0850181905260e085018190528981529152929092208151815591519293509160018201906200015a9082620007f1565b5060408201516002820190620001719082620007f1565b50606082015181600301556080820151816004015560a0820151816005015560c08201518160060160006101000a81548160ff02191690831515021790555060e082015181600701559050506040518061010001604052808381526020016040518060400160405280600a81526020016921b430b936b0b73232b960b11b8152508152602001604051806040016040528060048152602001634669726560e01b8152508152602001600581526020016000815260200160008152602001600015158152602001600081525060056000848152602001908152602001600020600082015181600001556020820151816001019081620002709190620007f1565b5060408201516002820190620002879082620007f1565b50606082015181600301556080820151816004015560a0820151816005015560c08201518160060160006101000a81548160ff02191690831515021790555060e08201518160070155905050604051806101000160405280828152602001604051806040016040528060088152602001675371756972746c6560c01b8152508152602001604051806040016040528060058152602001642bb0ba32b960d91b8152508152602001600581526020016000815260200160008152602001600015158152602001600081525060056000838152602001908152602001600020600082015181600001556020820151816001019081620003859190620007f1565b50604082015160028201906200039c9082620007f1565b506060828101516003830155608080840151600484015560a080850151600585015560c085015160068501805460ff191691151591909117905560e090940151600793840155604080519485018152600e9285019283526d426173696320547261696e696e6760901b91850191909152908352805160208181018352600080835281860192909252918401819052600190525280517fb39221ace053465ec3453ce2b36430bd138b997ecea25c1043da0c366812b828908190620004619082620007f1565b5060208201516001820190620004789082620007f1565b50604091820151600291820155815160a081018352600960608201908152684669726520446f6a6f60b81b608083015281528251808401845260048152634669726560e01b60208281019190915280830191909152678ac7230489e8000093820193909352600091909152600790915280517fb7c774451310d1be4108bc180d1b52823cb0ee0274a6c0081bcaf94f115fb96d9081906200051a9082620007f1565b5060208201516001820190620005319082620007f1565b50604091820151600290910155805160a081018252600c606082019081526b57617465722054656d706c6560a01b608083015281528151808301835260058152642bb0ba32b960d91b60208281019190915280830191909152678ac7230489e80000928201929092526003600052600790915280517f3be6fd20d5acfde5b873b48692cd31f4d3c7e8ee8a813af4696af8859e5ca6c6908190620005d69082620007f1565b5060208201516001820190620005ed9082620007f1565b50604091820151600290910155805160a081018252600c606082019081526b23b930b9b99023b0b93232b760a11b60808301528152815180830183526005815264477261737360d81b60208281019190915280830191909152678ac7230489e80000928201929092526004600052600790915280517fb805995a7ec585a251200611a61d179cfd7fb105e1ab17dc415a7336783786f7908190620006929082620007f1565b5060208201516001820190620006a99082620007f1565b5060408201518160020155905050505050620008bd565b6002620006ce8282620007f1565b5050565b600380546001600160a01b038381166001600160a01b0319831681179093556040519116919082907f8be0079c531659141344cd1fd0a4f28419497f9722a3daafe3b4186f6b6457e090600090a35050565b6000600182016200074557634e487b7160e01b600052601160045260246000fd5b5060010190565b634e487b7160e01b600052604160045260246000fd5b600181811c908216806200077757607f821691505b6020821081036200079857634e487b7160e01b600052602260045260246000fd5b50919050565b601f821115620007ec57600081815260208120601f850160051c81016020861015620007c75750805b601f850160051c820191505b81811015620007e857828155600101620007d3565b5050505b505050565b81516001600160401b038111156200080d576200080d6200074c565b62000825816200081e845462000762565b846200079e565b602080601f8311600181146200085d5760008415620008445750858301515b600019600386901b1c1916600185901b178555620007e8565b600085815260208120601f198616915b828110156200088e578886015182559484019460019091019084016200086d565b5085821015620008ad5787850151600019600388901b60f8161c191681555b5050505050600190811b01905550565b612bb280620008cd6000396000f3fe608060405234801561001057600080fd5b50600436106101fa5760003560e01c80636af783ea1161011a578063be6c5b7e116100ad578063e985e9c51161007c578063e985e9c514610451578063f17f767a1461037a578063f242432a14610464578063f2fde38b14610477578063fb1224e51461048a57600080fd5b8063be6c5b7e146103ec578063c1b2c1ae146103f4578063de23cfca1461041b578063e47248dc1461043e57600080fd5b80638da5cb5b116100e95780638da5cb5b146103ad578063a22cb465146103be578063b8708c42146103d1578063bde9f72f146103d957600080fd5b80636af783ea1461036a578063715018a61461037257806376a939e71461037a578063809525471461038257600080fd5b80632c17a522116101925780634f13b164116101615780634f13b1641461031157806355f804b31461033157806362ebe57e146103445780636415dbde1461035757600080fd5b80632c17a522146102ce5780632eb2c2d6146102d65780633f758568146102e95780634e1273f4146102f157600080fd5b80630fccc072116101ce5780630fccc07214610270578063154aa2a8146102785780632273c74e1461028d578063258b36d6146102ad57600080fd5b8062fdd58e146101ff57806301ffc9a7146102255780630e89341c146102485780630f8ea1c214610268575b600080fd5b61021261020d3660046120e6565b6104ac565b6040519081526020015b60405180910390f35b610238610233366004612126565b6104d4565b604051901515815260200161021c565b61025b61025636600461214a565b610524565b60405161021c91906121b3565b610212609681565b610212603c81565b61028b6102863660046121c6565b610558565b005b6102a061029b36600461214a565b610900565b60405161021c91906121e8565b6102c06102bb36600461214a565b610ad5565b60405161021c92919061226f565b610212600481565b61028b6102e43660046123e0565b610c8b565b610212600a81565b6103046102ff36600461248a565b610cf2565b60405161021c9190612585565b61032461031f36600461214a565b610dc7565b60405161021c9190612598565b61028b61033f3660046125e8565b610f38565b61028b610352366004612631565b610f50565b61028b61036536600461214a565b610f7a565b610212600381565b61028b611162565b610212600181565b600a54610395906001600160a01b031681565b6040516001600160a01b03909116815260200161021c565b6003546001600160a01b0316610395565b61028b6103cc36600461265a565b611176565b610212600281565b6103046103e736600461214a565b611181565b610212600581565b61040761040236600461214a565b6111e3565b60405161021c989796959493929190612691565b610238610429366004612631565b60066020526000908152604090205460ff1681565b61028b61044c36600461214a565b611339565b61023861045f3660046126ed565b611687565b61028b610472366004612720565b6116b5565b61028b610485366004612631565b611714565b61049d61049836600461214a565b611752565b60405161021c93929190612785565b6000818152602081815260408083206001600160a01b03861684529091529020545b92915050565b60006001600160e01b03198216636cdb3d1360e11b148061050557506001600160e01b031982166303a24d0760e21b145b806104ce57506301ffc9a760e01b6001600160e01b03198316146104ce565b6060600961053183611884565b604051602001610542929190612868565b6040516020818303038152906040529050919050565b60008281526005602052604081205490036105b35760405162461bcd60e51b8152602060048201526016602482015275141bdad95b5bdb88191bd95cc81b9bdd08195e1a5cdd60521b60448201526064015b60405180910390fd5b6000828152600560205260408120546001146105ed576000838152600560205260409020546004146105e65760076105f0565b60046105f0565b60015b60ff169050600061060133836104ac565b116106415760405162461bcd60e51b815260206004820152601060248201526f2737ba103cb7bab9102837b5b2b6b7b760811b60448201526064016105aa565b600082118015610652575060048211155b61069e5760405162461bcd60e51b815260206004820152601760248201527f496e76616c696420747261696e696e672067726f756e6400000000000000000060448201526064016105aa565b60008381526005602052604090206006015460ff16156106f35760405162461bcd60e51b815260206004820152601060248201526f416c726561647920747261696e696e6760801b60448201526064016105aa565b6000828152600760205260409081902060020154600a549151636eb1769f60e11b8152336004820152306024820152909182916001600160a01b039091169063dd62ed3e90604401602060405180830381865afa158015610758573d6000803e3d6000fd5b505050506040513d601f19601f8201168201806040525081019061077c919061289d565b10156107ca5760405162461bcd60e51b815260206004820152601f60248201527f496e73756666696369656e7420506f6b65436f696e20616c6c6f77616e63650060448201526064016105aa565b600a546040516323b872dd60e01b8152336004820152306024820152604481018390526001600160a01b03909116906323b872dd906064016020604051808303816000875af1158015610821573d6000803e3d6000fd5b505050506040513d601f19601f8201168201806040525081019061084591906128b6565b6108915760405162461bcd60e51b815260206004820152601860248201527f506f6b65436f696e207472616e73666572206661696c6564000000000000000060448201526064016105aa565b60008481526005602081905260409182902060068101805460ff1916600117905542918101919091556007018490555184907f9d5819c7ffd7580f18ec65632cf8672da6a217ee456af540fff3b0ea800c6305906108f29086815260200190565b60405180910390a250505050565b61094a604051806101000160405280600081526020016060815260200160608152602001600081526020016000815260200160008152602001600015158152602001600081525090565b600560008381526020019081526020016000206040518061010001604052908160008201548152602001600182018054610983906127bb565b80601f01602080910402602001604051908101604052809291908181526020018280546109af906127bb565b80156109fc5780601f106109d1576101008083540402835291602001916109fc565b820191906000526020600020905b8154815290600101906020018083116109df57829003601f168201915b50505050508152602001600282018054610a15906127bb565b80601f0160208091040260200160405190810160405280929190818152602001828054610a41906127bb565b8015610a8e5780601f10610a6357610100808354040283529160200191610a8e565b820191906000526020600020905b815481529060010190602001808311610a7157829003601f168201915b5050509183525050600382015460208201526004820154604082015260058201546060820152600682015460ff161515608082015260079091015460a09091015292915050565b6000818152600560205260408120546060908203610b24575050604080518082019091526016815275141bdad95b5bdb88191bd95cc81b9bdd08195e1a5cdd60521b6020820152600092909150565b600083815260056020526040812054600114610b5e57600084815260056020526040902054600414610b57576007610b61565b6004610b61565b60015b60ff169050610b7033826104ac565b600003610bac5760006040518060400160405280601081526020016f2737ba103cb7bab9102837b5b2b6b7b760811b8152509250925050915091565b60008481526005602052604090206006015460ff16610c075760006040518060400160405280601781526020017f506f6b656d6f6e206973206e6f7420747261696e696e670000000000000000008152509250925050915091565b60008481526005602081905260409091200154610c2690603c906128e9565b421015610c6f5760006040518060400160405280601a81526020017f547261696e696e672074696d65206e6f7420636f6d706c6574650000000000008152509250925050915091565b6001604051806020016040528060008152509250925050915091565b336001600160a01b0386168114801590610cac5750610caa8682611687565b155b15610cdd5760405163711bec9160e11b81526001600160a01b038083166004830152871660248201526044016105aa565b610cea8686868686611917565b505050505050565b60608151835114610d235781518351604051635b05999160e01b8152600481019290925260248201526044016105aa565b6000835167ffffffffffffffff811115610d3f57610d3f612292565b604051908082528060200260200182016040528015610d68578160200160208202803683370190505b50905060005b8451811015610dbf57602080820286010151610d92906020808402870101516104ac565b828281518110610da457610da46128fc565b6020908102919091010152610db881612912565b9050610d6e565b509392505050565b610deb60405180606001604052806060815260200160608152602001600081525090565b60008281526007602052604090819020815160608101909252805482908290610e13906127bb565b80601f0160208091040260200160405190810160405280929190818152602001828054610e3f906127bb565b8015610e8c5780601f10610e6157610100808354040283529160200191610e8c565b820191906000526020600020905b815481529060010190602001808311610e6f57829003601f168201915b50505050508152602001600182018054610ea5906127bb565b80601f0160208091040260200160405190810160405280929190818152602001828054610ed1906127bb565b8015610f1e5780601f10610ef357610100808354040283529160200191610f1e565b820191906000526020600020905b815481529060010190602001808311610f0157829003601f168201915b505050505081526020016002820154815250509050919050565b610f4061197e565b6009610f4c8282612976565b5050565b610f5861197e565b600a80546001600160a01b0319166001600160a01b0392909216919091179055565b600080610f8683610ad5565b91509150818190610faa5760405162461bcd60e51b81526004016105aa91906121b3565b50600083815260056020819052604082206007810154910154909190610fd09042612a36565b90506000610fdf603c83612a49565b90506000610fee600183612a6b565b9050600760008581526020019081526020016000206001016040516110139190612a82565b6040805191829003822060008a8152600560205291909120909161103a9160020190612a82565b604051809103902003611061576064611054609683612a6b565b61105e9190612a49565b90505b600087815260056020526040812060040180548392906110829084906128e9565b90915550505b6000878152600560205260409020600401546064116110f55760008781526005602052604081206003018054600192906110c39084906128e9565b909155505060008781526005602052604081206004018054606492906110ea908490612a36565b909155506110889050565b600087815260056020818152604080842060068101805460ff19169055928301849055600790920192909255805186815291820183905288917f0ccc42750d9dce02f33355c35d96f5b942523df7acac68e43b23572a50c9f25f910160405180910390a250505050505050565b61116a61197e565b61117460006119ab565b565b610f4c3383836119fd565b6000818152600860209081526040918290208054835181840281018401909452808452606093928301828280156111d757602002820191906000526020600020905b8154815260200190600101908083116111c3575b50505050509050919050565b60056020526000908152604090208054600182018054919291611205906127bb565b80601f0160208091040260200160405190810160405280929190818152602001828054611231906127bb565b801561127e5780601f106112535761010080835404028352916020019161127e565b820191906000526020600020905b81548152906001019060200180831161126157829003601f168201915b505050505090806002018054611293906127bb565b80601f01602080910402602001604051908101604052809291908181526020018280546112bf906127bb565b801561130c5780601f106112e15761010080835404028352916020019161130c565b820191906000526020600020905b8154815290600101906020018083116112ef57829003601f168201915b505050506003830154600484015460058501546006860154600790960154949592949193509160ff169088565b80600114806113485750806004145b806113535750806007145b61139f5760405162461bcd60e51b815260206004820152601760248201527f496e76616c6964207374617274657220506f6b656d6f6e00000000000000000060448201526064016105aa565b3360009081526006602052604090205460ff16156113ff5760405162461bcd60e51b815260206004820152601b60248201527f416c726561647920686173207374617274657220506f6b656d6f6e000000000060448201526064016105aa565b600480546000918261141083612912565b919050559050600060405180610100016040528083815260200184600114611488578460041461146057604051806040016040528060088152602001675371756972746c6560c01b8152506114ab565b6040518060400160405280600a81526020016921b430b936b0b73232b960b11b8152506114ab565b60405180604001604052806009815260200168213ab63130b9b0bab960b91b8152505b81526020018460011461150557846004146114e357604051806040016040528060058152602001642bb0ba32b960d91b815250611524565b604051806040016040528060048152602001634669726560e01b815250611524565b60405180604001604052806005815260200164477261737360d81b8152505b81526005602080830182905260006040808501829052606085018290526080850182905260a09094018190528681529181529190208251815590820151919250829160018201906115759082612976565b506040820151600282019061158a9082612976565b50606082015160038201556080820151600482015560a0820151600582015560c082015160068201805460ff191691151591909117905560e090910151600790910155600083815260086020908152604080832080546001818101835591855283852001869055815192830190915291815261160a913391869190611a93565b3360008181526006602052604090819020805460ff19166001179055600a549051630178e1d360e31b815260048101929092526001600160a01b031690630bc70e9890602401600060405180830381600087803b15801561166a57600080fd5b505af115801561167e573d6000803e3d6000fd5b50505050505050565b6001600160a01b03918216600090815260016020908152604080832093909416825291909152205460ff1690565b336001600160a01b03861681148015906116d657506116d48682611687565b155b156117075760405163711bec9160e11b81526001600160a01b038083166004830152871660248201526044016105aa565b610cea8686868686611af0565b61171c61197e565b6001600160a01b03811661174657604051631e4fbdf760e01b8152600060048201526024016105aa565b61174f816119ab565b50565b60076020526000908152604090208054819061176d906127bb565b80601f0160208091040260200160405190810160405280929190818152602001828054611799906127bb565b80156117e65780601f106117bb576101008083540402835291602001916117e6565b820191906000526020600020905b8154815290600101906020018083116117c957829003601f168201915b5050505050908060010180546117fb906127bb565b80601f0160208091040260200160405190810160405280929190818152602001828054611827906127bb565b80156118745780601f1061184957610100808354040283529160200191611874565b820191906000526020600020905b81548152906001019060200180831161185757829003601f168201915b5050505050908060020154905083565b6060600061189183611b75565b600101905060008167ffffffffffffffff8111156118b1576118b1612292565b6040519080825280601f01601f1916602001820160405280156118db576020820181803683370190505b5090508181016020015b600019016f181899199a1a9b1b9c1cb0b131b232b360811b600a86061a8153600a85049450846118e557509392505050565b6001600160a01b03841661194157604051632bfa23e760e11b8152600060048201526024016105aa565b6001600160a01b03851661196a57604051626a0d4560e21b8152600060048201526024016105aa565b6119778585858585611c4d565b5050505050565b6003546001600160a01b031633146111745760405163118cdaa760e01b81523360048201526024016105aa565b600380546001600160a01b038381166001600160a01b0319831681179093556040519116919082907f8be0079c531659141344cd1fd0a4f28419497f9722a3daafe3b4186f6b6457e090600090a35050565b6001600160a01b038216611a265760405162ced3e160e81b8152600060048201526024016105aa565b6001600160a01b03838116600081815260016020908152604080832094871680845294825291829020805460ff191686151590811790915591519182527f17307eab39ab6107e8899845ad3d59bd9653f200f220920489ca2b5937696c31910160405180910390a3505050565b6001600160a01b038416611abd57604051632bfa23e760e11b8152600060048201526024016105aa565b60408051600180825260208201869052818301908152606082018590526080820190925290610cea600087848487611c4d565b6001600160a01b038416611b1a57604051632bfa23e760e11b8152600060048201526024016105aa565b6001600160a01b038516611b4357604051626a0d4560e21b8152600060048201526024016105aa565b6040805160018082526020820186905281830190815260608201859052608082019092529061167e8787848487611c4d565b60008072184f03e93ff9f4daa797ed6e38ed64bf6a1f0160401b8310611bb45772184f03e93ff9f4daa797ed6e38ed64bf6a1f0160401b830492506040015b6d04ee2d6d415b85acef81000000008310611be0576d04ee2d6d415b85acef8100000000830492506020015b662386f26fc100008310611bfe57662386f26fc10000830492506010015b6305f5e1008310611c16576305f5e100830492506008015b6127108310611c2a57612710830492506004015b60648310611c3c576064830492506002015b600a83106104ce5760010192915050565b611c5985858585611ca0565b6001600160a01b038416156119775782513390600103611c925760208481015190840151611c8b838989858589611ebd565b5050610cea565b610cea818787878787611fe1565b8051825114611ccf5781518151604051635b05999160e01b8152600481019290925260248201526044016105aa565b3360005b8351811015611dde576020818102858101820151908501909101516001600160a01b03881615611d86576000828152602081815260408083206001600160a01b038c16845290915290205481811015611d5f576040516303dee4c560e01b81526001600160a01b038a1660048201526024810182905260448101839052606481018490526084016105aa565b6000838152602081815260408083206001600160a01b038d16845290915290209082900390555b6001600160a01b03871615611dcb576000828152602081815260408083206001600160a01b038b16845290915281208054839290611dc59084906128e9565b90915550505b505080611dd790612912565b9050611cd3565b508251600103611e5f5760208301516000906020840151909150856001600160a01b0316876001600160a01b0316846001600160a01b03167fc3d58168c5ae7397731d063d5bbf3d657854427343f4c083240f7aacaa2d0f628585604051611e50929190918252602082015260400190565b60405180910390a45050611977565b836001600160a01b0316856001600160a01b0316826001600160a01b03167f4a39dc06d4c0dbc64b70af90fd698a233a518aa5d07e595d983b8c0526c8f7fb8686604051611eae929190612a8e565b60405180910390a45050505050565b6001600160a01b0384163b15610cea5760405163f23a6e6160e01b81526001600160a01b0385169063f23a6e6190611f019089908990889088908890600401612abc565b6020604051808303816000875af1925050508015611f3c575060408051601f3d908101601f19168201909252611f3991810190612b01565b60015b611fa5573d808015611f6a576040519150601f19603f3d011682016040523d82523d6000602084013e611f6f565b606091505b508051600003611f9d57604051632bfa23e760e11b81526001600160a01b03861660048201526024016105aa565b805181602001fd5b6001600160e01b0319811663f23a6e6160e01b1461167e57604051632bfa23e760e11b81526001600160a01b03861660048201526024016105aa565b6001600160a01b0384163b15610cea5760405163bc197c8160e01b81526001600160a01b0385169063bc197c81906120259089908990889088908890600401612b1e565b6020604051808303816000875af1925050508015612060575060408051601f3d908101601f1916820190925261205d91810190612b01565b60015b61208e573d808015611f6a576040519150601f19603f3d011682016040523d82523d6000602084013e611f6f565b6001600160e01b0319811663bc197c8160e01b1461167e57604051632bfa23e760e11b81526001600160a01b03861660048201526024016105aa565b80356001600160a01b03811681146120e157600080fd5b919050565b600080604083850312156120f957600080fd5b612102836120ca565b946020939093013593505050565b6001600160e01b03198116811461174f57600080fd5b60006020828403121561213857600080fd5b813561214381612110565b9392505050565b60006020828403121561215c57600080fd5b5035919050565b60005b8381101561217e578181015183820152602001612166565b50506000910152565b6000815180845261219f816020860160208601612163565b601f01601f19169290920160200192915050565b6020815260006121436020830184612187565b600080604083850312156121d957600080fd5b50508035926020909101359150565b602081528151602082015260006020830151610100806040850152612211610120850183612187565b91506040850151601f1985840301606086015261222e8382612187565b92505060608501516080850152608085015160a085015260a085015160c085015260c0850151151560e085015260e085015181850152508091505092915050565b821515815260406020820152600061228a6040830184612187565b949350505050565b634e487b7160e01b600052604160045260246000fd5b604051601f8201601f1916810167ffffffffffffffff811182821017156122d1576122d1612292565b604052919050565b600067ffffffffffffffff8211156122f3576122f3612292565b5060051b60200190565b600082601f83011261230e57600080fd5b8135602061232361231e836122d9565b6122a8565b82815260059290921b8401810191818101908684111561234257600080fd5b8286015b8481101561235d5780358352918301918301612346565b509695505050505050565b600067ffffffffffffffff83111561238257612382612292565b612395601f8401601f19166020016122a8565b90508281528383830111156123a957600080fd5b828260208301376000602084830101529392505050565b600082601f8301126123d157600080fd5b61214383833560208501612368565b600080600080600060a086880312156123f857600080fd5b612401866120ca565b945061240f602087016120ca565b9350604086013567ffffffffffffffff8082111561242c57600080fd5b61243889838a016122fd565b9450606088013591508082111561244e57600080fd5b61245a89838a016122fd565b9350608088013591508082111561247057600080fd5b5061247d888289016123c0565b9150509295509295909350565b6000806040838503121561249d57600080fd5b823567ffffffffffffffff808211156124b557600080fd5b818501915085601f8301126124c957600080fd5b813560206124d961231e836122d9565b82815260059290921b840181019181810190898411156124f857600080fd5b948201945b8386101561251d5761250e866120ca565b825294820194908201906124fd565b9650508601359250508082111561253357600080fd5b50612540858286016122fd565b9150509250929050565b600081518084526020808501945080840160005b8381101561257a5781518752958201959082019060010161255e565b509495945050505050565b602081526000612143602083018461254a565b6020815260008251606060208401526125b46080840182612187565b90506020840151601f198483030160408501526125d18282612187565b915050604084015160608401528091505092915050565b6000602082840312156125fa57600080fd5b813567ffffffffffffffff81111561261157600080fd5b8201601f8101841361262257600080fd5b61228a84823560208401612368565b60006020828403121561264357600080fd5b612143826120ca565b801515811461174f57600080fd5b6000806040838503121561266d57600080fd5b612676836120ca565b915060208301356126868161264c565b809150509250929050565b60006101008a83528060208401526126ab8184018b612187565b905082810360408401526126bf818a612187565b60608401989098525050608081019490945260a0840192909252151560c083015260e0909101529392505050565b6000806040838503121561270057600080fd5b612709836120ca565b9150612717602084016120ca565b90509250929050565b600080600080600060a0868803121561273857600080fd5b612741866120ca565b945061274f602087016120ca565b93506040860135925060608601359150608086013567ffffffffffffffff81111561277957600080fd5b61247d888289016123c0565b6060815260006127986060830186612187565b82810360208401526127aa8186612187565b915050826040830152949350505050565b600181811c908216806127cf57607f821691505b6020821081036127ef57634e487b7160e01b600052602260045260246000fd5b50919050565b60008154612802816127bb565b6001828116801561281a576001811461282f5761285e565b60ff198416875282151583028701945061285e565b8560005260208060002060005b858110156128555781548a82015290840190820161283c565b50505082870194505b5050505092915050565b600061287482856127f5565b8351612884818360208801612163565b64173539b7b760d91b9101908152600501949350505050565b6000602082840312156128af57600080fd5b5051919050565b6000602082840312156128c857600080fd5b81516121438161264c565b634e487b7160e01b600052601160045260246000fd5b808201808211156104ce576104ce6128d3565b634e487b7160e01b600052603260045260246000fd5b600060018201612924576129246128d3565b5060010190565b601f82111561297157600081815260208120601f850160051c810160208610156129525750805b601f850160051c820191505b81811015610cea5782815560010161295e565b505050565b815167ffffffffffffffff81111561299057612990612292565b6129a48161299e84546127bb565b8461292b565b602080601f8311600181146129d957600084156129c15750858301515b600019600386901b1c1916600185901b178555610cea565b600085815260208120601f198616915b82811015612a08578886015182559484019460019091019084016129e9565b5085821015612a265787850151600019600388901b60f8161c191681555b5050505050600190811b01905550565b818103818111156104ce576104ce6128d3565b600082612a6657634e487b7160e01b600052601260045260246000fd5b500490565b80820281158282048414176104ce576104ce6128d3565b600061214382846127f5565b604081526000612aa1604083018561254a565b8281036020840152612ab3818561254a565b95945050505050565b6001600160a01b03868116825285166020820152604081018490526060810183905260a060808201819052600090612af690830184612187565b979650505050505050565b600060208284031215612b1357600080fd5b815161214381612110565b6001600160a01b0386811682528516602082015260a060408201819052600090612b4a9083018661254a565b8281036060840152612b5c818661254a565b90508281036080840152612b708185612187565b9897505050505050505056fea26469706673582212208feb2403c50b4c8b8a8678f6fe5fc5fbd61416645bb845ab20ce6cab2f39f1e264736f6c63430008140033",
  "linkReferences": {},
  "deployedLinkReferences": {}
}