{
  "_format": "hh-sol-artifact-1",
  "contractName": "PokeCoin",
  "sourceName": "contracts/PokeCoin.sol",
  "abi": [
    {
      "inputs": [],
      "stateMutability": "nonpayable",
      "type": "constructor"
    },
    {
      "inputs": [
        {
          "internalType": "address",
          "name": "spender",
          "type": "address"
        },
        {
          "internalType": "uint256",
          "name": "allowance",
          "type": "uint256"
        },
        {
          "internalType": "uint256",
          "name": "needed",
          "type": "uint256"
        }
      ],
      "name": "ERC20InsufficientAllowance",
      "type": "error"
    },
    {
      "inputs": [
        {
          "internalType": "address",
          "name": "sender",
          "type": "address"
        },
        {
          "internalType": "uint256",
          "name": "balance",
          "type": "uint256"
        },
        {
          "internalType": "uint256",
          "name": "needed",
          "type": "uint256"
        }
      ],
      "name": "ERC20InsufficientBalance",
      "type": "error"
    },
    {
      "inputs": [
        {
          "internalType": "address",
          "name": "approver",
          "type": "address"
        }
      ],
      "name": "ERC20InvalidApprover",
      "type": "error"
    },
    {
      "inputs": [
        {
          "internalType": "address",
          "name": "receiver",
          "type": "address"
        }
      ],
      "name": "ERC20InvalidReceiver",
      "type": "error"
    },
    {
      "inputs": [
        {
          "internalType": "address",
          "name": "sender",
          "type": "address"
        }
      ],
      "name": "ERC20InvalidSender",
      "type": "error"
    },
    {
      "inputs": [
        {
          "internalType": "address",
          "name": "spender",
          "type": "address"
        }
      ],
      "name": "ERC20InvalidSpender",
      "type": "error"
    },
    {
      "inputs": [
        {
          "internalType": "address",
          "name": "owner",
          "type": "address"
        }
      ],
      "name": "OwnableInvalidOwner",
      "type": "error"
    },
    {
      "inputs": [
        {
          "internalType": "address",
          "name": "account",
          "type": "address"
        }
      ],
      "name": "OwnableUnauthorizedAccount",
      "type": "error"
    },
    {
      "anonymous": false,
      "inputs": [
        {
          "indexed": true,
          "internalType": "address",
          "name": "owner",
          "type": "address"
        },
        {
          "indexed": true,
          "internalType": "address",
          "name": "spender",
          "type": "address"
        },
        {
          "indexed": false,
          "internalType": "uint256",
          "name": "value",
          "type": "uint256"
        }
      ],
      "name": "Approval",
      "type": "event"
    },
    {
      "anonymous": false,
      "inputs": [
        {
          "indexed": true,
          "internalType": "address",
          "name": "previousOwner",
          "type": "address"
        },
        {
          "indexed": true,
          "internalType": "address",
          "name": "newOwner",
          "type": "address"
        }
      ],
      "name": "OwnershipTransferred",
      "type": "event"
    },
    {
      "anonymous": false,
      "inputs": [
        {
          "indexed": true,
          "internalType": "address",
          "name": "from",
          "type": "address"
        },
        {
          "indexed": true,
          "internalType": "address",
          "name": "to",
          "type": "address"
        },
        {
          "indexed": false,
          "internalType": "uint256",
          "name": "value",
          "type": "uint256"
        }
      ],
      "name": "Transfer",
      "type": "event"
    },
    {
      "inputs": [
        {
          "internalType": "address",
          "name": "minter",
          "type": "address"
        }
      ],
      "name": "addMinter",
      "outputs": [],
      "stateMutability": "nonpayable",
      "type": "function"
    },
    {
      "inputs": [
        {
          "internalType": "address",
          "name": "owner",
          "type": "address"
        },
        {
          "internalType": "address",
          "name": "spender",
          "type": "address"
        }
      ],
      "name": "allowance",
      "outputs": [
        {
          "internalType": "uint256",
          "name": "",
          "type": "uint256"
        }
      ],
      "stateMutability": "view",
      "type": "function"
    },
    {
      "inputs": [
        {
          "internalType": "address",
          "name": "spender",
          "type": "address"
        },
        {
          "internalType": "uint256",
          "name": "value",
          "type": "uint256"
        }
      ],
      "name": "approve",
      "outputs": [
        {
          "internalType": "bool",
          "name": "",
          "type": "bool"
        }
      ],
      "stateMutability": "nonpayable",
      "type": "function"
    },
    {
      "inputs": [
        {
          "internalType": "address",
          "name": "account",
          "type": "address"
        }
      ],
      "name": "balanceOf",
      "outputs": [
        {
          "internalType": "uint256",
          "name": "",
          "type": "uint256"
        }
      ],
      "stateMutability": "view",
      "type": "function"
    },
    {
      "inputs": [],
      "name": "decimals",
      "outputs": [
        {
          "internalType": "uint8",
          "name": "",
          "type": "uint8"
        }
      ],
      "stateMutability": "view",
      "type": "function"
    },
    {
      "inputs": [
        {
          "internalType": "address",
          "name": "to",
          "type": "address"
        },
        {
          "internalType": "uint256",
          "name": "amount",
          "type": "uint256"
        }
      ],
      "name": "mint",
      "outputs": [],
      "stateMutability": "nonpayable",
      "type": "function"
    },
    {
      "inputs": [
        {
          "internalType": "address",
          "name": "to",
          "type": "address"
        }
      ],
      "name": "mintInitialCoins",
      "outputs": [],
      "stateMutability": "nonpayable",
      "type": "function"
    },
    {
      "inputs": [
        {
          "internalType": "address",
          "name": "",
          "type": "address"
        }
      ],
      "name": "minters",
      "outputs": [
        {
          "internalType": "bool",
          "name": "",
          "type": "bool"
        }
      ],
      "stateMutability": "view",
      "type": "function"
    },
    {
      "inputs": [],
      "name": "name",
      "outputs": [
        {
          "internalType": "string",
          "name": "",
          "type": "string"
        }
      ],
      "stateMutability": "view",
      "type": "function"
    },
    {
      "inputs": [],
      "name": "owner",
      "outputs": [
        {
          "internalType": "address",
          "name": "",
          "type": "address"
        }
      ],
      "stateMutability": "view",
      "type": "function"
    },
    {
      "inputs": [
        {
          "internalType": "address",
          "name": "minter",
          "type": "address"
        }
      ],
      "name": "removeMinter",
      "outputs": [],
      "stateMutability": "nonpayable",
      "type": "function"
    },
    {
      "inputs": [],
      "name": "renounceOwnership",
      "outputs": [],
      "stateMutability": "nonpayable",
      "type": "function"
    },
    {
      "inputs": [],
      "name": "symbol",
      "outputs": [
        {
          "internalType": "string",
          "name": "",
          "type": "string"
        }
      ],
      "stateMutability": "view",
      "type": "function"
    },
    {
      "inputs": [],
      "name": "totalSupply",
      "outputs": [
        {
          "internalType": "uint256",
          "name": "",
          "type": "uint256"
        }
      ],
      "stateMutability": "view",
      "type": "function"
    },
    {
      "inputs": [
        {
          "internalType": "address",
          "name": "to",
          "type": "address"
        },
        {
          "internalType": "uint256",
          "name": "value",
          "type": "uint256"
        }
      ],
      "name": "transfer",
      "outputs": [
        {
          "internalType": "bool",
          "name": "",
          "type": "bool"
        }
      ],
      "stateMutability": "nonpayable",
      "type": "function"
    },
    {
      "inputs": [
        {
          "internalType": "address",
          "name": "from",
          "type": "address"
        },
        {
          "internalType": "address",
          "name": "to",
          "type": "address"
        },
        {
          "internalType": "uint256",
          "name": "value",
          "type": "uint256"
        }
      ],
      "name": "transferFrom",
      "outputs": [
        {
          "internalType": "bool",
          "name": "",
          "type": "bool"
        }
      ],
      "stateMutability": "nonpayable",
      "type": "function"
    },
    {
      "inputs": [
        {
          "internalType": "address",
          "name": "newOwner",
          "type": "address"
        }
      ],
      "name": "transferOwnership",
      "outputs": [],
      "stateMutability": "nonpayable",
      "type": "function"
    }
  ],
  "bytecode": "0x60806040523480156200001157600080fd5b5033604051806040016040528060088152602001672837b5b2a1b7b4b760c11b81525060405180604001604052806003815260200162504b4360e81b8152508160039081620000619190620001ab565b506004620000708282620001ab565b5050506001600160a01b038116620000a257604051631e4fbdf760e01b81526000600482015260240160405180910390fd5b620000ad81620000b4565b5062000277565b600580546001600160a01b038381166001600160a01b0319831681179093556040519116919082907f8be0079c531659141344cd1fd0a4f28419497f9722a3daafe3b4186f6b6457e090600090a35050565b634e487b7160e01b600052604160045260246000fd5b600181811c908216806200013157607f821691505b6020821081036200015257634e487b7160e01b600052602260045260246000fd5b50919050565b601f821115620001a657600081815260208120601f850160051c81016020861015620001815750805b601f850160051c820191505b81811015620001a2578281556001016200018d565b5050505b505050565b81516001600160401b03811115620001c757620001c762000106565b620001df81620001d884546200011c565b8462000158565b602080601f831160018114620002175760008415620001fe5750858301515b600019600386901b1c1916600185901b178555620001a2565b600085815260208120601f198616915b82811015620002485788860151825594840194600190910190840162000227565b5085821015620002675787850151600019600388901b60f8161c191681555b5050505050600190811b01905550565b610b4b80620002876000396000f3fe608060405234801561001057600080fd5b506004361061010b5760003560e01c806370a08231116100a2578063983b2d5611610071578063983b2d5614610214578063a9059cbb14610227578063dd62ed3e1461023a578063f2fde38b14610273578063f46eccc41461028657600080fd5b806370a08231146101c0578063715018a6146101e95780638da5cb5b146101f157806395d89b411461020c57600080fd5b806323b872dd116100de57806323b872dd146101785780633092afd51461018b578063313ce5671461019e57806340c10f19146101ad57600080fd5b806306fdde0314610110578063095ea7b31461012e5780630bc70e981461015157806318160ddd14610166575b600080fd5b6101186102a9565b6040516101259190610883565b60405180910390f35b61014161013c3660046108ed565b61033b565b6040519015158152602001610125565b61016461015f366004610917565b610355565b005b6002545b604051908152602001610125565b610141610186366004610939565b6103d5565b610164610199366004610917565b6103f9565b60405160128152602001610125565b6101646101bb3660046108ed565b610422565b61016a6101ce366004610917565b6001600160a01b031660009081526020819052604090205490565b610164610448565b6005546040516001600160a01b039091168152602001610125565b61011861045c565b610164610222366004610917565b61046b565b6101416102353660046108ed565b610497565b61016a610248366004610975565b6001600160a01b03918216600090815260016020908152604080832093909416825291909152205490565b610164610281366004610917565b6104a5565b610141610294366004610917565b60066020526000908152604090205460ff1681565b6060600380546102b8906109a8565b80601f01602080910402602001604051908101604052809291908181526020018280546102e4906109a8565b80156103315780601f1061030657610100808354040283529160200191610331565b820191906000526020600020905b81548152906001019060200180831161031457829003601f168201915b5050505050905090565b6000336103498185856104e0565b60019150505b92915050565b3360009081526006602052604090205460ff166103b25760405162461bcd60e51b8152602060048201526016602482015275139bdd08185d5d1a1bdc9a5e9959081d1bc81b5a5b9d60521b60448201526064015b60405180910390fd5b6103d2816103c26012600a610adc565b6103cd906064610aeb565b6104f2565b50565b6000336103e3858285610528565b6103ee8585856105a6565b506001949350505050565b610401610605565b6001600160a01b03166000908152600660205260409020805460ff19169055565b61042a610605565b6104448261043a6012600a610adc565b6103cd9084610aeb565b5050565b610450610605565b61045a6000610632565b565b6060600480546102b8906109a8565b610473610605565b6001600160a01b03166000908152600660205260409020805460ff19166001179055565b6000336103498185856105a6565b6104ad610605565b6001600160a01b0381166104d757604051631e4fbdf760e01b8152600060048201526024016103a9565b6103d281610632565b6104ed8383836001610684565b505050565b6001600160a01b03821661051c5760405163ec442f0560e01b8152600060048201526024016103a9565b61044460008383610759565b6001600160a01b0383811660009081526001602090815260408083209386168352929052205460001981146105a0578181101561059157604051637dc7a0d960e11b81526001600160a01b038416600482015260248101829052604481018390526064016103a9565b6105a084848484036000610684565b50505050565b6001600160a01b0383166105d057604051634b637e8f60e11b8152600060048201526024016103a9565b6001600160a01b0382166105fa5760405163ec442f0560e01b8152600060048201526024016103a9565b6104ed838383610759565b6005546001600160a01b0316331461045a5760405163118cdaa760e01b81523360048201526024016103a9565b600580546001600160a01b038381166001600160a01b0319831681179093556040519116919082907f8be0079c531659141344cd1fd0a4f28419497f9722a3daafe3b4186f6b6457e090600090a35050565b6001600160a01b0384166106ae5760405163e602df0560e01b8152600060048201526024016103a9565b6001600160a01b0383166106d857604051634a1406b160e11b8152600060048201526024016103a9565b6001600160a01b03808516600090815260016020908152604080832093871683529290522082905580156105a057826001600160a01b0316846001600160a01b03167f8c5be1e5ebec7d5bd14f71427d1e84f3dd0314c0f7b2291e5b200ac8c7c3b9258460405161074b91815260200190565b60405180910390a350505050565b6001600160a01b0383166107845780600260008282546107799190610b02565b909155506107f69050565b6001600160a01b038316600090815260208190526040902054818110156107d75760405163391434e360e21b81526001600160a01b038516600482015260248101829052604481018390526064016103a9565b6001600160a01b03841660009081526020819052604090209082900390555b6001600160a01b03821661081257600280548290039055610831565b6001600160a01b03821660009081526020819052604090208054820190555b816001600160a01b0316836001600160a01b03167fddf252ad1be2c89b69c2b068fc378daa952ba7f163c4a11628f55a4df523b3ef8360405161087691815260200190565b60405180910390a3505050565b600060208083528351808285015260005b818110156108b057858101830151858201604001528201610894565b506000604082860101526040601f19601f8301168501019250505092915050565b80356001600160a01b03811681146108e857600080fd5b919050565b6000806040838503121561090057600080fd5b610909836108d1565b946020939093013593505050565b60006020828403121561092957600080fd5b610932826108d1565b9392505050565b60008060006060848603121561094e57600080fd5b610957846108d1565b9250610965602085016108d1565b9150604084013590509250925092565b6000806040838503121561098857600080fd5b610991836108d1565b915061099f602084016108d1565b90509250929050565b600181811c908216806109bc57607f821691505b6020821081036109dc57634e487b7160e01b600052602260045260246000fd5b50919050565b634e487b7160e01b600052601160045260246000fd5b600181815b80851115610a33578160001904821115610a1957610a196109e2565b80851615610a2657918102915b93841c93908002906109fd565b509250929050565b600082610a4a5750600161034f565b81610a575750600061034f565b8160018114610a6d5760028114610a7757610a93565b600191505061034f565b60ff841115610a8857610a886109e2565b50506001821b61034f565b5060208310610133831016604e8410600b8410161715610ab6575081810a61034f565b610ac083836109f8565b8060001904821115610ad457610ad46109e2565b029392505050565b600061093260ff841683610a3b565b808202811582820484141761034f5761034f6109e2565b8082018082111561034f5761034f6109e256fea26469706673582212201babbb45fc2932f52b8c40666eba3a07b277b1a622c9343b3e44aecbe24e29e964736f6c63430008140033",
  "linkReferences": {},
  "deployedLinkReferences": {}
}