{
  "_format": "hh-sol-artifact-1",
  "contractName": "PokemonTrading",
  "sourceName": "contracts/PokemonContract.sol",
  "abi": [
    {
      "inputs": [
        {
          "internalType": "address",
          "name": "_pokemonContract",
          "type": "address"
        }
      ],
      "stateMutability": "nonpayable",
      "type": "constructor"
    },
    {
      "anonymous": false,
      "inputs": [
        {
          "indexed": true,
          "internalType": "uint256",
          "name": "offerId",
          "type": "uint256"
        }
      ],
      "name": "TradeOfferAccepted",
      "type": "event"
    },
    {
      "anonymous": false,
      "inputs": [
        {
          "indexed": true,
          "internalType": "uint256",
          "name": "offerId",
          "type": "uint256"
        }
      ],
      "name": "TradeOfferCancelled",
      "type": "event"
    },
    {
      "anonymous": false,
      "inputs": [
        {
          "indexed": true,
          "internalType": "uint256",
          "name": "offerId",
          "type": "uint256"
        },
        {
          "indexed": true,
          "internalType": "address",
          "name": "creator",
          "type": "address"
        },
        {
          "indexed": false,
          "internalType": "uint256",
          "name": "pokemonId",
          "type": "uint256"
        },
        {
          "indexed": false,
          "internalType": "address",
          "name": "requestedOwner",
          "type": "address"
        },
        {
          "indexed": false,
          "internalType": "uint256",
          "name": "requestedPokemonId",
          "type": "uint256"
        }
      ],
      "name": "TradeOfferCreated",
      "type": "event"
    },
    {
      "inputs": [
        {
          "internalType": "uint256",
          "name": "_offerId",
          "type": "uint256"
        }
      ],
      "name": "acceptTradeOffer",
      "outputs": [],
      "stateMutability": "nonpayable",
      "type": "function"
    },
    {
      "inputs": [
        {
          "internalType": "uint256",
          "name": "_offerId",
          "type": "uint256"
        }
      ],
      "name": "cancelTradeOffer",
      "outputs": [],
      "stateMutability": "nonpayable",
      "type": "function"
    },
    {
      "inputs": [
        {
          "internalType": "uint256",
          "name": "_pokemonId",
          "type": "uint256"
        },
        {
          "internalType": "address",
          "name": "_requestedPokemonOwner",
          "type": "address"
        },
        {
          "internalType": "uint256",
          "name": "_requestedPokemonId",
          "type": "uint256"
        }
      ],
      "name": "createTradeOffer",
      "outputs": [],
      "stateMutability": "nonpayable",
      "type": "function"
    },
    {
      "inputs": [],
      "name": "getActiveTradeOffers",
      "outputs": [
        {
          "components": [
            {
              "internalType": "address",
              "name": "creator",
              "type": "address"
            },
            {
              "internalType": "uint256",
              "name": "pokemonId",
              "type": "uint256"
            },
            {
              "internalType": "address",
              "name": "requestedPokemonOwner",
              "type": "address"
            },
            {
              "internalType": "uint256",
              "name": "requestedPokemonId",
              "type": "uint256"
            },
            {
              "internalType": "bool",
              "name": "isActive",
              "type": "bool"
            }
          ],
          "internalType": "struct PokemonTrading.TradeOffer[]",
          "name": "",
          "type": "tuple[]"
        }
      ],
      "stateMutability": "view",
      "type": "function"
    },
    {
      "inputs": [
        {
          "internalType": "uint256",
          "name": "_offerId",
          "type": "uint256"
        }
      ],
      "name": "getTradeOffer",
      "outputs": [
        {
          "components": [
            {
              "internalType": "address",
              "name": "creator",
              "type": "address"
            },
            {
              "internalType": "uint256",
              "name": "pokemonId",
              "type": "uint256"
            },
            {
              "internalType": "address",
              "name": "requestedPokemonOwner",
              "type": "address"
            },
            {
              "internalType": "uint256",
              "name": "requestedPokemonId",
              "type": "uint256"
            },
            {
              "internalType": "bool",
              "name": "isActive",
              "type": "bool"
            }
          ],
          "internalType": "struct PokemonTrading.TradeOffer",
          "name": "",
          "type": "tuple"
        }
      ],
      "stateMutability": "view",
      "type": "function"
    },
    {
      "inputs": [],
      "name": "pokemonContract",
      "outputs": [
        {
          "internalType": "contract IERC721",
          "name": "",
          "type": "address"
        }
      ],
      "stateMutability": "view",
      "type": "function"
    },
    {
      "inputs": [
        {
          "internalType": "uint256",
          "name": "",
          "type": "uint256"
        }
      ],
      "name": "tradeOffers",
      "outputs": [
        {
          "internalType": "address",
          "name": "creator",
          "type": "address"
        },
        {
          "internalType": "uint256",
          "name": "pokemonId",
          "type": "uint256"
        },
        {
          "internalType": "address",
          "name": "requestedPokemonOwner",
          "type": "address"
        },
        {
          "internalType": "uint256",
          "name": "requestedPokemonId",
          "type": "uint256"
        },
        {
          "internalType": "bool",
          "name": "isActive",
          "type": "bool"
        }
      ],
      "stateMutability": "view",
      "type": "function"
    }
  ],
  "bytecode": "0x608060405234801561001057600080fd5b50604051610f04380380610f0483398101604081905261002f91610054565b600080546001600160a01b0319166001600160a01b0392909216919091179055610084565b60006020828403121561006657600080fd5b81516001600160a01b038116811461007d57600080fd5b9392505050565b610e71806100936000396000f3fe608060405234801561001057600080fd5b506004361061007d5760003560e01c8063673ac8991161005b578063673ac899146101015780636b76f2b4146101215780636d50905f14610134578063aa2b2bd91461015f57600080fd5b80630f947ecb1461008257806320a564db146100a05780635d5b9021146100ec575b600080fd5b61008a610172565b6040516100979190610c3a565b60405180910390f35b6100b36100ae366004610c88565b610340565b604080516001600160a01b039687168152602081019590955292909416918301919091526060820152901515608082015260a001610097565b6100ff6100fa366004610c88565b610390565b005b61011461010f366004610c88565b610650565b6040516100979190610ca1565b6100ff61012f366004610ccd565b610713565b600054610147906001600160a01b031681565b6040516001600160a01b039091168152602001610097565b6100ff61016d366004610c88565b610ac6565b60606000805b6001548110156101d1576001818154811061019557610195610d05565b600091825260209091206004600590920201015460ff16156101bf57816101bb81610d31565b9250505b806101c981610d31565b915050610178565b5060008167ffffffffffffffff8111156101ed576101ed610d4a565b60405190808252806020026020018201604052801561024657816020015b6040805160a08101825260008082526020808301829052928201819052606082018190526080820152825260001990920191018161020b5790505b5090506000805b600154811015610337576001818154811061026a5761026a610d05565b600091825260209091206004600590920201015460ff1615610325576001818154811061029957610299610d05565b60009182526020918290206040805160a081018252600590930290910180546001600160a01b0390811684526001820154948401949094526002810154909316908201526003820154606082015260049091015460ff1615156080820152835184908490811061030b5761030b610d05565b6020026020010181905250818061032190610d31565b9250505b8061032f81610d31565b91505061024d565b50909392505050565b6001818154811061035057600080fd5b6000918252602090912060059091020180546001820154600283015460038401546004909401546001600160a01b03938416955091939216919060ff1685565b60015481106103ba5760405162461bcd60e51b81526004016103b190610d60565b60405180910390fd5b6000600182815481106103cf576103cf610d05565b60009182526020909120600590910201600481015490915060ff166104325760405162461bcd60e51b81526020600482015260196024820152785472616465206f66666572206973206e6f742061637469766560381b60448201526064016103b1565b60028101546001600160a01b0316331461049d5760405162461bcd60e51b815260206004820152602660248201527f596f75277265206e6f74207468652072657175657374656420506f6b656d6f6e6044820152651037bbb732b960d11b60648201526084016103b1565b60005460405163e985e9c560e01b81523360048201523060248201526001600160a01b039091169063e985e9c590604401602060405180830381865afa1580156104eb573d6000803e3d6000fd5b505050506040513d601f19601f8201168201806040525081019061050f9190610d97565b61052b5760405162461bcd60e51b81526004016103b190610dc0565b8054600182015460038301546000546040516323b872dd60e01b81526001600160a01b03948516600482018190523360248301526044820185905294909116906323b872dd90606401600060405180830381600087803b15801561058e57600080fd5b505af11580156105a2573d6000803e3d6000fd5b50506000546040516323b872dd60e01b81523360048201526001600160a01b0387811660248301526044820186905290911692506323b872dd9150606401600060405180830381600087803b1580156105fa57600080fd5b505af115801561060e573d6000803e3d6000fd5b50505060048501805460ff191690555060405185907f8cad91cc10c4bd0424bc443b3ba2fb75456fbaa78928c141185d8a36b9b7f6dd90600090a25050505050565b6040805160a081018252600080825260208201819052918101829052606081018290526080810191909152600154821061069c5760405162461bcd60e51b81526004016103b190610d60565b600182815481106106af576106af610d05565b60009182526020918290206040805160a081018252600590930290910180546001600160a01b0390811684526001820154948401949094526002810154909316908201526003820154606082015260049091015460ff161515608082015292915050565b6000546040516331a9108f60e11b81526004810185905233916001600160a01b031690636352211e90602401602060405180830381865afa15801561075c573d6000803e3d6000fd5b505050506040513d601f19601f820116820180604052508101906107809190610e0b565b6001600160a01b0316146107d65760405162461bcd60e51b815260206004820152601a60248201527f596f7520646f6e2774206f776e207468697320506f6b656d6f6e00000000000060448201526064016103b1565b6000546040516331a9108f60e11b8152600481018390526001600160a01b03848116921690636352211e90602401602060405180830381865afa158015610821573d6000803e3d6000fd5b505050506040513d601f19601f820116820180604052508101906108459190610e0b565b6001600160a01b0316146108a75760405162461bcd60e51b8152602060048201526024808201527f52657175657374656420506f6b656d6f6e206f776e657220697320696e636f726044820152631c9958dd60e21b60648201526084016103b1565b60005460405163e985e9c560e01b81523360048201523060248201526001600160a01b039091169063e985e9c590604401602060405180830381865afa1580156108f5573d6000803e3d6000fd5b505050506040513d601f19601f820116820180604052508101906109199190610d97565b6109355760405162461bcd60e51b81526004016103b190610dc0565b6040805160a08101825233808252602082018681526001600160a01b0386811694840194855260608401868152600160808601818152815480830183556000839052965160059097027fb10e2d527612073b26eecdfd717e6a320cf44b4afac2b0732d9fcbe2b7fa0cf6810180549886166001600160a01b0319998a1617905594517fb10e2d527612073b26eecdfd717e6a320cf44b4afac2b0732d9fcbe2b7fa0cf786015596517fb10e2d527612073b26eecdfd717e6a320cf44b4afac2b0732d9fcbe2b7fa0cf88501805491909416961695909517909155517fb10e2d527612073b26eecdfd717e6a320cf44b4afac2b0732d9fcbe2b7fa0cf982015592517fb10e2d527612073b26eecdfd717e6a320cf44b4afac2b0732d9fcbe2b7fa0cfa909301805493151560ff19909416939093179092558054610a789190610e28565b604080518681526001600160a01b03861660208201529081018490527f4436b09b8182ff47d58dcc95f2ca9f942431203509e3eb875e179ca75e6c955f9060600160405180910390a3505050565b6001548110610ae75760405162461bcd60e51b81526004016103b190610d60565b600060018281548110610afc57610afc610d05565b60009182526020909120600590910201600481015490915060ff16610b5f5760405162461bcd60e51b81526020600482015260196024820152785472616465206f66666572206973206e6f742061637469766560381b60448201526064016103b1565b80546001600160a01b03163314610bc25760405162461bcd60e51b815260206004820152602160248201527f4f6e6c792063726561746f722063616e2063616e63656c20746865206f6666656044820152603960f91b60648201526084016103b1565b60048101805460ff1916905560405182907fc754a4b878552d0fc775d075fea1dc22f51657a9ef39ede106fe10828e7b8caa90600090a25050565b80516001600160a01b0390811683526020808301519084015260408083015190911690830152606080820151908301526080908101511515910152565b6020808252825182820181905260009190848201906040850190845b81811015610c7c57610c69838551610bfd565b9284019260a09290920191600101610c56565b50909695505050505050565b600060208284031215610c9a57600080fd5b5035919050565b60a08101610caf8284610bfd565b92915050565b6001600160a01b0381168114610cca57600080fd5b50565b600080600060608486031215610ce257600080fd5b833592506020840135610cf481610cb5565b929592945050506040919091013590565b634e487b7160e01b600052603260045260246000fd5b634e487b7160e01b600052601160045260246000fd5b600060018201610d4357610d43610d1b565b5060010190565b634e487b7160e01b600052604160045260246000fd5b60208082526019908201527f5472616465206f6666657220646f65736e277420657869737400000000000000604082015260600190565b600060208284031215610da957600080fd5b81518015158114610db957600080fd5b9392505050565b6020808252602b908201527f436f6e7472616374206e6565647320617070726f76616c20746f207472616e7360408201526a3332b9102837b5b2b6b7b760a91b606082015260800190565b600060208284031215610e1d57600080fd5b8151610db981610cb5565b81810381811115610caf57610caf610d1b56fea264697066735822122008e0e18e470fd73419a4dae8a5b27c56ac3acfab37bdbb2cbb060d244a01195d64736f6c63430008140033",
  "linkReferences": {},
  "deployedLinkReferences": {}
}