{
  "_format": "hh-sol-artifact-1",
  "contractName": "PokemonItems",
  "sourceName": "contracts/PokemonItems.sol",
  "abi": [
    {
      "inputs": [],
      "stateMutability": "nonpayable",
      "type": "constructor"
    },
    {
      "inputs": [
        {
          "internalType": "address",
          "name": "sender",
          "type": "address"
        },
        {
          "internalType": "uint256",
          "name": "balance",
          "type": "uint256"
        },
        {
          "internalType": "uint256",
          "name": "needed",
          "type": "uint256"
        },
        {
          "internalType": "uint256",
          "name": "tokenId",
          "type": "uint256"
        }
      ],
      "name": "ERC1155InsufficientBalance",
      "type": "error"
    },
    {
      "inputs": [
        {
          "internalType": "address",
          "name": "approver",
          "type": "address"
        }
      ],
      "name": "ERC1155InvalidApprover",
      "type": "error"
    },
    {
      "inputs": [
        {
          "internalType": "uint256",
          "name": "idsLength",
          "type": "uint256"
        },
        {
          "internalType": "uint256",
          "name": "valuesLength",
          "type": "uint256"
        }
      ],
      "name": "ERC1155InvalidArrayLength",
      "type": "error"
    },
    {
      "inputs": [
        {
          "internalType": "address",
          "name": "operator",
          "type": "address"
        }
      ],
      "name": "ERC1155InvalidOperator",
      "type": "error"
    },
    {
      "inputs": [
        {
          "internalType": "address",
          "name": "receiver",
          "type": "address"
        }
      ],
      "name": "ERC1155InvalidReceiver",
      "type": "error"
    },
    {
      "inputs": [
        {
          "internalType": "address",
          "name": "sender",
          "type": "address"
        }
      ],
      "name": "ERC1155InvalidSender",
      "type": "error"
    },
    {
      "inputs": [
        {
          "internalType": "address",
          "name": "operator",
          "type": "address"
        },
        {
          "internalType": "address",
          "name": "owner",
          "type": "address"
        }
      ],
      "name": "ERC1155MissingApprovalForAll",
      "type": "error"
    },
    {
      "inputs": [
        {
          "internalType": "address",
          "name": "owner",
          "type": "address"
        }
      ],
      "name": "OwnableInvalidOwner",
      "type": "error"
    },
    {
      "inputs": [
        {
          "internalType": "address",
          "name": "account",
          "type": "address"
        }
      ],
      "name": "OwnableUnauthorizedAccount",
      "type": "error"
    },
    {
      "anonymous": false,
      "inputs": [
        {
          "indexed": true,
          "internalType": "address",
          "name": "account",
          "type": "address"
        },
        {
          "indexed": true,
          "internalType": "address",
          "name": "operator",
          "type": "address"
        },
        {
          "indexed": false,
          "internalType": "bool",
          "name": "approved",
          "type": "bool"
        }
      ],
      "name": "ApprovalForAll",
      "type": "event"
    },
    {
      "anonymous": false,
      "inputs": [
        {
          "indexed": true,
          "internalType": "address",
          "name": "receiver",
          "type": "address"
        },
        {
          "indexed": false,
          "internalType": "uint256",
          "name": "amount",
          "type": "uint256"
        }
      ],
      "name": "CoinsReceived",
      "type": "event"
    },
    {
      "anonymous": false,
      "inputs": [
        {
          "indexed": true,
          "internalType": "address",
          "name": "account",
          "type": "address"
        },
        {
          "indexed": false,
          "internalType": "uint256",
          "name": "amount",
          "type": "uint256"
        }
      ],
      "name": "CoinsSpent",
      "type": "event"
    },
    {
      "anonymous": false,
      "inputs": [
        {
          "indexed": true,
          "internalType": "address",
          "name": "previousOwner",
          "type": "address"
        },
        {
          "indexed": true,
          "internalType": "address",
          "name": "newOwner",
          "type": "address"
        }
      ],
      "name": "OwnershipTransferred",
      "type": "event"
    },
    {
      "anonymous": false,
      "inputs": [
        {
          "indexed": true,
          "internalType": "address",
          "name": "operator",
          "type": "address"
        },
        {
          "indexed": true,
          "internalType": "address",
          "name": "from",
          "type": "address"
        },
        {
          "indexed": true,
          "internalType": "address",
          "name": "to",
          "type": "address"
        },
        {
          "indexed": false,
          "internalType": "uint256[]",
          "name": "ids",
          "type": "uint256[]"
        },
        {
          "indexed": false,
          "internalType": "uint256[]",
          "name": "values",
          "type": "uint256[]"
        }
      ],
      "name": "TransferBatch",
      "type": "event"
    },
    {
      "anonymous": false,
      "inputs": [
        {
          "indexed": true,
          "internalType": "address",
          "name": "operator",
          "type": "address"
        },
        {
          "indexed": true,
          "internalType": "address",
          "name": "from",
          "type": "address"
        },
        {
          "indexed": true,
          "internalType": "address",
          "name": "to",
          "type": "address"
        },
        {
          "indexed": false,
          "internalType": "uint256",
          "name": "id",
          "type": "uint256"
        },
        {
          "indexed": false,
          "internalType": "uint256",
          "name": "value",
          "type": "uint256"
        }
      ],
      "name": "TransferSingle",
      "type": "event"
    },
    {
      "anonymous": false,
      "inputs": [
        {
          "indexed": false,
          "internalType": "string",
          "name": "value",
          "type": "string"
        },
        {
          "indexed": true,
          "internalType": "uint256",
          "name": "id",
          "type": "uint256"
        }
      ],
      "name": "URI",
      "type": "event"
    },
    {
      "inputs": [],
      "name": "COINS_100",
      "outputs": [
        {
          "internalType": "uint256",
          "name": "",
          "type": "uint256"
        }
      ],
      "stateMutability": "view",
      "type": "function"
    },
    {
      "inputs": [],
      "name": "COINS_1000",
      "outputs": [
        {
          "internalType": "uint256",
          "name": "",
          "type": "uint256"
        }
      ],
      "stateMutability": "view",
      "type": "function"
    },
    {
      "inputs": [],
      "name": "COINS_500",
      "outputs": [
        {
          "internalType": "uint256",
          "name": "",
          "type": "uint256"
        }
      ],
      "stateMutability": "view",
      "type": "function"
    },
    {
      "inputs": [],
      "name": "COINS_5000",
      "outputs": [
        {
          "internalType": "uint256",
          "name": "",
          "type": "uint256"
        }
      ],
      "stateMutability": "view",
      "type": "function"
    },
    {
      "inputs": [],
      "name": "GREAT_BALL",
      "outputs": [
        {
          "internalType": "uint256",
          "name": "",
          "type": "uint256"
        }
      ],
      "stateMutability": "view",
      "type": "function"
    },
    {
      "inputs": [],
      "name": "MASTER_BALL",
      "outputs": [
        {
          "internalType": "uint256",
          "name": "",
          "type": "uint256"
        }
      ],
      "stateMutability": "view",
      "type": "function"
    },
    {
      "inputs": [],
      "name": "POKEBALL",
      "outputs": [
        {
          "internalType": "uint256",
          "name": "",
          "type": "uint256"
        }
      ],
      "stateMutability": "view",
      "type": "function"
    },
    {
      "inputs": [],
      "name": "ULTRA_BALL",
      "outputs": [
        {
          "internalType": "uint256",
          "name": "",
          "type": "uint256"
        }
      ],
      "stateMutability": "view",
      "type": "function"
    },
    {
      "inputs": [
        {
          "internalType": "address",
          "name": "account",
          "type": "address"
        },
        {
          "internalType": "uint256",
          "name": "id",
          "type": "uint256"
        }
      ],
      "name": "balanceOf",
      "outputs": [
        {
          "internalType": "uint256",
          "name": "",
          "type": "uint256"
        }
      ],
      "stateMutability": "view",
      "type": "function"
    },
    {
      "inputs": [
        {
          "internalType": "address[]",
          "name": "accounts",
          "type": "address[]"
        },
        {
          "internalType": "uint256[]",
          "name": "ids",
          "type": "uint256[]"
        }
      ],
      "name": "balanceOfBatch",
      "outputs": [
        {
          "internalType": "uint256[]",
          "name": "",
          "type": "uint256[]"
        }
      ],
      "stateMutability": "view",
      "type": "function"
    },
    {
      "inputs": [
        {
          "internalType": "address",
          "name": "from",
          "type": "address"
        },
        {
          "internalType": "address",
          "name": "to",
          "type": "address"
        },
        {
          "internalType": "uint256",
          "name": "amount",
          "type": "uint256"
        }
      ],
      "name": "batchTransferCoins",
      "outputs": [],
      "stateMutability": "nonpayable",
      "type": "function"
    },
    {
      "inputs": [
        {
          "internalType": "address",
          "name": "account",
          "type": "address"
        }
      ],
      "name": "getCoinBalance",
      "outputs": [
        {
          "internalType": "uint256",
          "name": "",
          "type": "uint256"
        }
      ],
      "stateMutability": "view",
      "type": "function"
    },
    {
      "inputs": [
        {
          "internalType": "address",
          "name": "account",
          "type": "address"
        },
        {
          "internalType": "address",
          "name": "operator",
          "type": "address"
        }
      ],
      "name": "isApprovedForAll",
      "outputs": [
        {
          "internalType": "bool",
          "name": "",
          "type": "bool"
        }
      ],
      "stateMutability": "view",
      "type": "function"
    },
    {
      "inputs": [
        {
          "internalType": "uint256",
          "name": "itemId",
          "type": "uint256"
        }
      ],
      "name": "isPokeCoins",
      "outputs": [
        {
          "internalType": "bool",
          "name": "",
          "type": "bool"
        }
      ],
      "stateMutability": "pure",
      "type": "function"
    },
    {
      "inputs": [
        {
          "internalType": "uint256",
          "name": "",
          "type": "uint256"
        }
      ],
      "name": "items",
      "outputs": [
        {
          "internalType": "string",
          "name": "name",
          "type": "string"
        },
        {
          "internalType": "string",
          "name": "itemType",
          "type": "string"
        },
        {
          "internalType": "uint256",
          "name": "price",
          "type": "uint256"
        },
        {
          "internalType": "bool",
          "name": "isAvailable",
          "type": "bool"
        },
        {
          "internalType": "uint256",
          "name": "amount",
          "type": "uint256"
        }
      ],
      "stateMutability": "view",
      "type": "function"
    },
    {
      "inputs": [
        {
          "internalType": "uint256",
          "name": "itemId",
          "type": "uint256"
        },
        {
          "internalType": "uint256",
          "name": "amount",
          "type": "uint256"
        }
      ],
      "name": "mintItem",
      "outputs": [],
      "stateMutability": "payable",
      "type": "function"
    },
    {
      "inputs": [],
      "name": "owner",
      "outputs": [
        {
          "internalType": "address",
          "name": "",
          "type": "address"
        }
      ],
      "stateMutability": "view",
      "type": "function"
    },
    {
      "inputs": [
        {
          "internalType": "address",
          "name": "",
          "type": "address"
        }
      ],
      "name": "pokeCoins",
      "outputs": [
        {
          "internalType": "uint256",
          "name": "",
          "type": "uint256"
        }
      ],
      "stateMutability": "view",
      "type": "function"
    },
    {
      "inputs": [],
      "name": "renounceOwnership",
      "outputs": [],
      "stateMutability": "nonpayable",
      "type": "function"
    },
    {
      "inputs": [
        {
          "internalType": "address",
          "name": "from",
          "type": "address"
        },
        {
          "internalType": "address",
          "name": "to",
          "type": "address"
        },
        {
          "internalType": "uint256[]",
          "name": "ids",
          "type": "uint256[]"
        },
        {
          "internalType": "uint256[]",
          "name": "values",
          "type": "uint256[]"
        },
        {
          "internalType": "bytes",
          "name": "data",
          "type": "bytes"
        }
      ],
      "name": "safeBatchTransferFrom",
      "outputs": [],
      "stateMutability": "nonpayable",
      "type": "function"
    },
    {
      "inputs": [
        {
          "internalType": "address",
          "name": "from",
          "type": "address"
        },
        {
          "internalType": "address",
          "name": "to",
          "type": "address"
        },
        {
          "internalType": "uint256",
          "name": "id",
          "type": "uint256"
        },
        {
          "internalType": "uint256",
          "name": "value",
          "type": "uint256"
        },
        {
          "internalType": "bytes",
          "name": "data",
          "type": "bytes"
        }
      ],
      "name": "safeTransferFrom",
      "outputs": [],
      "stateMutability": "nonpayable",
      "type": "function"
    },
    {
      "inputs": [
        {
          "internalType": "address",
          "name": "operator",
          "type": "address"
        },
        {
          "internalType": "bool",
          "name": "approved",
          "type": "bool"
        }
      ],
      "name": "setApprovalForAll",
      "outputs": [],
      "stateMutability": "nonpayable",
      "type": "function"
    },
    {
      "inputs": [
        {
          "internalType": "uint256",
          "name": "itemId",
          "type": "uint256"
        },
        {
          "internalType": "bool",
          "name": "isAvailable",
          "type": "bool"
        }
      ],
      "name": "setItemAvailability",
      "outputs": [],
      "stateMutability": "nonpayable",
      "type": "function"
    },
    {
      "inputs": [
        {
          "internalType": "uint256",
          "name": "itemId",
          "type": "uint256"
        },
        {
          "internalType": "uint256",
          "name": "newPrice",
          "type": "uint256"
        }
      ],
      "name": "setItemPrice",
      "outputs": [],
      "stateMutability": "nonpayable",
      "type": "function"
    },
    {
      "inputs": [
        {
          "internalType": "address",
          "name": "account",
          "type": "address"
        },
        {
          "internalType": "uint256",
          "name": "amount",
          "type": "uint256"
        }
      ],
      "name": "spendCoins",
      "outputs": [],
      "stateMutability": "nonpayable",
      "type": "function"
    },
    {
      "inputs": [
        {
          "internalType": "bytes4",
          "name": "interfaceId",
          "type": "bytes4"
        }
      ],
      "name": "supportsInterface",
      "outputs": [
        {
          "internalType": "bool",
          "name": "",
          "type": "bool"
        }
      ],
      "stateMutability": "view",
      "type": "function"
    },
    {
      "inputs": [
        {
          "internalType": "address",
          "name": "newOwner",
          "type": "address"
        }
      ],
      "name": "transferOwnership",
      "outputs": [],
      "stateMutability": "nonpayable",
      "type": "function"
    },
    {
      "inputs": [
        {
          "internalType": "uint256",
          "name": "",
          "type": "uint256"
        }
      ],
      "name": "uri",
      "outputs": [
        {
          "internalType": "string",
          "name": "",
          "type": "string"
        }
      ],
      "stateMutability": "view",
      "type": "function"
    },
    {
      "inputs": [],
      "name": "withdrawFunds",
      "outputs": [],
      "stateMutability": "nonpayable",
      "type": "function"
    }
  ],
  "bytecode": "0x60806040523480156200001157600080fd5b5060408051602081019091526000815233906200002e81620007e6565b506001600160a01b0381166200005e57604051631e4fbdf760e01b81526000600482015260240160405180910390fd5b6200006981620007f8565b506040805160e081018252600960a0820190815268141bdad94810985b1b60ba1b60c083015281528151808301835260088152671c1bdad958985b1b60c21b6020828101919091528083019190915266038d7ea4c680009282019290925260016060820181905260808201819052600052600490915280517fabd6e7cb50984ff9c2f3e18a2660c3353dadf4e3291deeb275dae2cd1e44fe05908190620001119082620008ef565b5060208201516001820190620001289082620008ef565b5060408281015160028381019190915560608085015160038501805460ff1916911515919091179055608094850151600494850155825160e081018452600a60a082019081526911dc99585d0810985b1b60b21b60c083015281528351808501855260088152671c1bdad958985b1b60c21b6020828101919091528083019190915266071afd498d0000948201949094526001918101829052948501526000525280517f91da3fd0782e51c6b3986e9e672fd566868e71f3dbc2d6c2cd6fbb3e361af2a7908190620001fb9082620008ef565b5060208201516001820190620002129082620008ef565b5060408281015160028301556060808401516003808501805460ff191692151592909217909155608094850151600494850155825160e081018452600a60a0820190815269155b1d1c984810985b1b60b21b60c083015281528351808501855260088152671c1bdad958985b1b60c21b60208281019190915280830191909152660aa87bee538000948201949094526001928101839052948501919091526000525280517f2e174c10e159ea99b867ce3205125c24a42d128804e4070ed6fcc8cc98166aa0908190620002e69082620008ef565b5060208201516001820190620002fd9082620008ef565b50604082810151600283015560608084015160038401805460ff1916911515919091179055608093840151600493840155815160e081018352600b60a082019081526a13585cdd195c8810985b1b60aa1b60c083015281528251808401845260088152671c1bdad958985b1b60c21b60208281019190915280830191909152662386f26fc100009382019390935260019181018290529384015260008290525280517f1a1e6821cde7d0159c0d293177871e09677b4e42307c7db3ba94f8648a5a050f908190620003cf9082620008ef565b5060208201516001820190620003e69082620008ef565b50604082810151600283015560608084015160038401805460ff1916911515919091179055608093840151600493840155815160e081018352600d60a082019081526c31303020506f6b65436f696e7360981b60c0830152815282518084018452600881526763757272656e637960c01b6020828101919091528083019190915266038d7ea4c680009382019390935260019181019190915260649381019390935260056000525280517f04cde762ef08b6b6c5ded8e8c4c0b3f4e5c9ad7342c88fcc93681b4588b73f05908190620004c09082620008ef565b5060208201516001820190620004d79082620008ef565b50604082810151600283015560608084015160038401805460ff1916911515919091179055608093840151600493840155815160e081018352600d60a082019081526c35303020506f6b65436f696e7360981b60c0830152815282518084018452600881526763757272656e637960c01b60208281019190915280830191909152660e35fa931a0000938201939093526001918101919091526101f49381019390935260066000525280517fc59312466997bb42aaaf719ece141047820e6b34531e1670dc1852a453648f0f908190620005b29082620008ef565b5060208201516001820190620005c99082620008ef565b50604082810151600283015560608084015160038401805460ff1916911515919091179055608093840151600493840155815160e081018352600e60a082019081526d3130303020506f6b65436f696e7360901b60c0830152815282518084018452600881526763757272656e637960c01b602082810191909152808301919091526618de76816d8000938201939093526001918101919091526103e89381019390935260076000525280517fbeb3bad75134cb432e5707980e3245c52c5998a1125ee30f2f0dbf3925b1e551908190620006a59082620008ef565b5060208201516001820190620006bc9082620008ef565b50604082810151600283015560608084015160038401805460ff1916911515919091179055608093840151600493840155815160e081018352600e60a082019081526d3530303020506f6b65436f696e7360901b60c083015281528251808401845260088082526763757272656e637960c01b60208381019190915280840192909252666a94d74f43000094830194909452600192820192909252611388948101949094526000919091525280517f2645749a946633740611cfc8178319f0958659d6922e4bf7e3a08b44789f53a49081906200079a9082620008ef565b5060208201516001820190620007b19082620008ef565b5060408201516002820155606082015160038201805460ff1916911515919091179055608090910151600490910155620009bb565b6002620007f48282620008ef565b5050565b600380546001600160a01b038381166001600160a01b0319831681179093556040519116919082907f8be0079c531659141344cd1fd0a4f28419497f9722a3daafe3b4186f6b6457e090600090a35050565b634e487b7160e01b600052604160045260246000fd5b600181811c908216806200087557607f821691505b6020821081036200089657634e487b7160e01b600052602260045260246000fd5b50919050565b601f821115620008ea57600081815260208120601f850160051c81016020861015620008c55750805b601f850160051c820191505b81811015620008e657828155600101620008d1565b5050505b505050565b81516001600160401b038111156200090b576200090b6200084a565b62000923816200091c845462000860565b846200089c565b602080601f8311600181146200095b5760008415620009425750858301515b600019600386901b1c1916600185901b178555620008e6565b600085815260208120601f198616915b828110156200098c578886015182559484019460019091019084016200096b565b5085821015620009ab5787850151600019600388901b60f8161c191681555b5050505050600190811b01905550565b611d9d80620009cb6000396000f3fe6080604052600436106101c15760003560e01c80638da5cb5b116100f7578063d50e89e711610095578063e985e9c511610064578063e985e9c5146104e6578063f242432a14610506578063f2fde38b14610526578063f85b945d1461054657600080fd5b8063d50e89e71461047c578063ddb9662c1461049c578063e67fd788146104b1578063e97d3af6146104c657600080fd5b8063bfb231d2116100d1578063bfb231d21461040c578063c0def43f1461043d578063c4d8672314610452578063ce24d7bc1461046757600080fd5b80638da5cb5b146103a4578063978d4e7e146103cc578063a22cb465146103ec57600080fd5b80633ee05240116101645780634e1273f41161013e5780634e1273f4146103175780636d1919b514610344578063715018a614610359578063758654c21461036e57600080fd5b80633ee05240146102cf5780634229c35e146102e4578063449de7791461030457600080fd5b80631015ed43116101a05780631015ed4314610256578063131cdd421461028357806324600fc3146102985780632eb2c2d6146102af57600080fd5b8062fdd58e146101c657806301ffc9a7146101f95780630e89341c14610229575b600080fd5b3480156101d257600080fd5b506101e66101e1366004611638565b610566565b6040519081526020015b60405180910390f35b34801561020557600080fd5b50610219610214366004611678565b61058e565b60405190151581526020016101f0565b34801561023557600080fd5b5061024961024436600461169c565b6105de565b6040516101f091906116fb565b34801561026257600080fd5b506101e661027136600461170e565b60056020526000908152604090205481565b34801561028f57600080fd5b506101e6600381565b3480156102a457600080fd5b506102ad610672565b005b3480156102bb57600080fd5b506102ad6102ca36600461186f565b6106b6565b3480156102db57600080fd5b506101e6600581565b3480156102f057600080fd5b506102ad6102ff366004611919565b610722565b6102ad610312366004611919565b61073f565b34801561032357600080fd5b5061033761033236600461193b565b610983565b6040516101f09190611a36565b34801561035057600080fd5b506101e6600881565b34801561036557600080fd5b506102ad610a58565b34801561037a57600080fd5b506101e661038936600461170e565b6001600160a01b031660009081526005602052604090205490565b3480156103b057600080fd5b506003546040516001600160a01b0390911681526020016101f0565b3480156103d857600080fd5b506102ad6103e7366004611638565b610a6c565b3480156103f857600080fd5b506102ad610407366004611a59565b610b3f565b34801561041857600080fd5b5061042c61042736600461169c565b610b4e565b6040516101f0959493929190611a8c565b34801561044957600080fd5b506101e6600781565b34801561045e57600080fd5b506101e6600281565b34801561047357600080fd5b506101e6600481565b34801561048857600080fd5b5061021961049736600461169c565b610c92565b3480156104a857600080fd5b506101e6600681565b3480156104bd57600080fd5b506101e6600181565b3480156104d257600080fd5b506102ad6104e1366004611acf565b610ca8565b3480156104f257600080fd5b50610219610501366004611af2565b610cd3565b34801561051257600080fd5b506102ad610521366004611b1c565b610d01565b34801561053257600080fd5b506102ad61054136600461170e565b610d60565b34801561055257600080fd5b506102ad610561366004611b81565b610d9b565b6000818152602081815260408083206001600160a01b03861684529091529020545b92915050565b60006001600160e01b03198216636cdb3d1360e11b14806105bf57506001600160e01b031982166303a24d0760e21b145b8061058857506301ffc9a760e01b6001600160e01b0319831614610588565b6060600280546105ed90611bbd565b80601f016020809104026020016040519081016040528092919081815260200182805461061990611bbd565b80156106665780601f1061063b57610100808354040283529160200191610666565b820191906000526020600020905b81548152906001019060200180831161064957829003601f168201915b50505050509050919050565b61067a610f38565b6003546040516001600160a01b03909116904780156108fc02916000818181858888f193505050501580156106b3573d6000803e3d6000fd5b50565b336001600160a01b03861681148015906106d757506106d58682610cd3565b155b1561070d5760405163711bec9160e11b81526001600160a01b038083166004830152871660248201526044015b60405180910390fd5b61071a8686868686610f65565b505050505050565b61072a610f38565b60009182526004602052604090912060020155565b600082118015610750575060088211155b61078e5760405162461bcd60e51b815260206004820152600f60248201526e125b9d985b1a59081a5d195b481251608a1b6044820152606401610704565b60008281526004602052604090206003015460ff166107e45760405162461bcd60e51b81526020600482015260126024820152714974656d206e6f7420617661696c61626c6560701b6044820152606401610704565b600081116108345760405162461bcd60e51b815260206004820152601d60248201527f416d6f756e74206d7573742062652067726561746572207468616e20300000006044820152606401610704565b600082815260046020526040812060020154610851908390611c0d565b90508034101561089a5760405162461bcd60e51b8152602060048201526014602482015273125b9cdd59999a58da595b9d081c185e5b595b9d60621b6044820152606401610704565b60058310610923576000838152600460208190526040822001546108bf908490611c0d565b336000908152600560205260408120805492935083929091906108e3908490611c24565b909155505060405181815233907f9073c8b000f3c19584b4624c84cd2e8efd408fd18038ceac9e492b911c3b70739060200160405180910390a25061093e565b61093e33848460405180602001604052806000815250610fcc565b8034111561097e57336108fc6109548334611c37565b6040518115909202916000818181858888f1935050505015801561097c573d6000803e3d6000fd5b505b505050565b606081518351146109b45781518351604051635b05999160e01b815260048101929092526024820152604401610704565b6000835167ffffffffffffffff8111156109d0576109d0611729565b6040519080825280602002602001820160405280156109f9578160200160208202803683370190505b50905060005b8451811015610a5057602080820286010151610a2390602080840287010151610566565b828281518110610a3557610a35611c4a565b6020908102919091010152610a4981611c60565b90506109ff565b509392505050565b610a60610f38565b610a6a6000611029565b565b6001600160a01b038216600090815260056020526040902054811115610ad05760405162461bcd60e51b8152602060048201526019602482015278496e73756666696369656e7420636f696e2062616c616e636560381b6044820152606401610704565b6001600160a01b03821660009081526005602052604081208054839290610af8908490611c37565b90915550506040518181526001600160a01b038316907f92c3d05f8ba31385c55d3263a9c7de7c1e17e7da9dba4b20246c3c0cf8df88c29060200160405180910390a25050565b610b4a33838361107b565b5050565b600460205260009081526040902080548190610b6990611bbd565b80601f0160208091040260200160405190810160405280929190818152602001828054610b9590611bbd565b8015610be25780601f10610bb757610100808354040283529160200191610be2565b820191906000526020600020905b815481529060010190602001808311610bc557829003601f168201915b505050505090806001018054610bf790611bbd565b80601f0160208091040260200160405190810160405280929190818152602001828054610c2390611bbd565b8015610c705780601f10610c4557610100808354040283529160200191610c70565b820191906000526020600020905b815481529060010190602001808311610c5357829003601f168201915b50505050600283015460038401546004909401549293909260ff909116915085565b6000600582101580156105885750506008101590565b610cb0610f38565b600091825260046020526040909120600301805460ff1916911515919091179055565b6001600160a01b03918216600090815260016020908152604080832093909416825291909152205460ff1690565b336001600160a01b0386168114801590610d225750610d208682610cd3565b155b15610d535760405163711bec9160e11b81526001600160a01b03808316600483015287166024820152604401610704565b61071a8686868686611111565b610d68610f38565b6001600160a01b038116610d9257604051631e4fbdf760e01b815260006004820152602401610704565b6106b381611029565b6001600160a01b038316600090815260056020526040902054811115610dff5760405162461bcd60e51b8152602060048201526019602482015278496e73756666696369656e7420636f696e2062616c616e636560381b6044820152606401610704565b6001600160a01b038316331480610e1b5750610e1b8333610cd3565b610e585760405162461bcd60e51b815260206004820152600e60248201526d139bdd08185d5d1a1bdc9a5e995960921b6044820152606401610704565b6001600160a01b03831660009081526005602052604081208054839290610e80908490611c37565b90915550506001600160a01b03821660009081526005602052604081208054839290610ead908490611c24565b90915550506040518181526001600160a01b038316907f9073c8b000f3c19584b4624c84cd2e8efd408fd18038ceac9e492b911c3b70739060200160405180910390a2826001600160a01b03167f92c3d05f8ba31385c55d3263a9c7de7c1e17e7da9dba4b20246c3c0cf8df88c282604051610f2b91815260200190565b60405180910390a2505050565b6003546001600160a01b03163314610a6a5760405163118cdaa760e01b8152336004820152602401610704565b6001600160a01b038416610f8f57604051632bfa23e760e11b815260006004820152602401610704565b6001600160a01b038516610fb857604051626a0d4560e21b815260006004820152602401610704565b610fc5858585858561119f565b5050505050565b6001600160a01b038416610ff657604051632bfa23e760e11b815260006004820152602401610704565b6040805160018082526020820186905281830190815260608201859052608082019092529061071a60008784848761119f565b600380546001600160a01b038381166001600160a01b0319831681179093556040519116919082907f8be0079c531659141344cd1fd0a4f28419497f9722a3daafe3b4186f6b6457e090600090a35050565b6001600160a01b0382166110a45760405162ced3e160e81b815260006004820152602401610704565b6001600160a01b03838116600081815260016020908152604080832094871680845294825291829020805460ff191686151590811790915591519182527f17307eab39ab6107e8899845ad3d59bd9653f200f220920489ca2b5937696c31910160405180910390a3505050565b6001600160a01b03841661113b57604051632bfa23e760e11b815260006004820152602401610704565b6001600160a01b03851661116457604051626a0d4560e21b815260006004820152602401610704565b60408051600180825260208201869052818301908152606082018590526080820190925290611196878784848761119f565b50505050505050565b6111ab858585856111f2565b6001600160a01b03841615610fc557825133906001036111e457602084810151908401516111dd83898985858961140f565b505061071a565b61071a818787878787611533565b80518251146112215781518151604051635b05999160e01b815260048101929092526024820152604401610704565b3360005b8351811015611330576020818102858101820151908501909101516001600160a01b038816156112d8576000828152602081815260408083206001600160a01b038c168452909152902054818110156112b1576040516303dee4c560e01b81526001600160a01b038a166004820152602481018290526044810183905260648101849052608401610704565b6000838152602081815260408083206001600160a01b038d16845290915290209082900390555b6001600160a01b0387161561131d576000828152602081815260408083206001600160a01b038b16845290915281208054839290611317908490611c24565b90915550505b50508061132990611c60565b9050611225565b5082516001036113b15760208301516000906020840151909150856001600160a01b0316876001600160a01b0316846001600160a01b03167fc3d58168c5ae7397731d063d5bbf3d657854427343f4c083240f7aacaa2d0f6285856040516113a2929190918252602082015260400190565b60405180910390a45050610fc5565b836001600160a01b0316856001600160a01b0316826001600160a01b03167f4a39dc06d4c0dbc64b70af90fd698a233a518aa5d07e595d983b8c0526c8f7fb8686604051611400929190611c79565b60405180910390a45050505050565b6001600160a01b0384163b1561071a5760405163f23a6e6160e01b81526001600160a01b0385169063f23a6e61906114539089908990889088908890600401611ca7565b6020604051808303816000875af192505050801561148e575060408051601f3d908101601f1916820190925261148b91810190611cec565b60015b6114f7573d8080156114bc576040519150601f19603f3d011682016040523d82523d6000602084013e6114c1565b606091505b5080516000036114ef57604051632bfa23e760e11b81526001600160a01b0386166004820152602401610704565b805181602001fd5b6001600160e01b0319811663f23a6e6160e01b1461119657604051632bfa23e760e11b81526001600160a01b0386166004820152602401610704565b6001600160a01b0384163b1561071a5760405163bc197c8160e01b81526001600160a01b0385169063bc197c81906115779089908990889088908890600401611d09565b6020604051808303816000875af19250505080156115b2575060408051601f3d908101601f191682019092526115af91810190611cec565b60015b6115e0573d8080156114bc576040519150601f19603f3d011682016040523d82523d6000602084013e6114c1565b6001600160e01b0319811663bc197c8160e01b1461119657604051632bfa23e760e11b81526001600160a01b0386166004820152602401610704565b80356001600160a01b038116811461163357600080fd5b919050565b6000806040838503121561164b57600080fd5b6116548361161c565b946020939093013593505050565b6001600160e01b0319811681146106b357600080fd5b60006020828403121561168a57600080fd5b813561169581611662565b9392505050565b6000602082840312156116ae57600080fd5b5035919050565b6000815180845260005b818110156116db576020818501810151868301820152016116bf565b506000602082860101526020601f19601f83011685010191505092915050565b60208152600061169560208301846116b5565b60006020828403121561172057600080fd5b6116958261161c565b634e487b7160e01b600052604160045260246000fd5b604051601f8201601f1916810167ffffffffffffffff8111828210171561176857611768611729565b604052919050565b600067ffffffffffffffff82111561178a5761178a611729565b5060051b60200190565b600082601f8301126117a557600080fd5b813560206117ba6117b583611770565b61173f565b82815260059290921b840181019181810190868411156117d957600080fd5b8286015b848110156117f457803583529183019183016117dd565b509695505050505050565b600082601f83011261181057600080fd5b813567ffffffffffffffff81111561182a5761182a611729565b61183d601f8201601f191660200161173f565b81815284602083860101111561185257600080fd5b816020850160208301376000918101602001919091529392505050565b600080600080600060a0868803121561188757600080fd5b6118908661161c565b945061189e6020870161161c565b9350604086013567ffffffffffffffff808211156118bb57600080fd5b6118c789838a01611794565b945060608801359150808211156118dd57600080fd5b6118e989838a01611794565b935060808801359150808211156118ff57600080fd5b5061190c888289016117ff565b9150509295509295909350565b6000806040838503121561192c57600080fd5b50508035926020909101359150565b6000806040838503121561194e57600080fd5b823567ffffffffffffffff8082111561196657600080fd5b818501915085601f83011261197a57600080fd5b8135602061198a6117b583611770565b82815260059290921b840181019181810190898411156119a957600080fd5b948201945b838610156119ce576119bf8661161c565b825294820194908201906119ae565b965050860135925050808211156119e457600080fd5b506119f185828601611794565b9150509250929050565b600081518084526020808501945080840160005b83811015611a2b57815187529582019590820190600101611a0f565b509495945050505050565b60208152600061169560208301846119fb565b8035801515811461163357600080fd5b60008060408385031215611a6c57600080fd5b611a758361161c565b9150611a8360208401611a49565b90509250929050565b60a081526000611a9f60a08301886116b5565b8281036020840152611ab181886116b5565b60408401969096525050911515606083015260809091015292915050565b60008060408385031215611ae257600080fd5b82359150611a8360208401611a49565b60008060408385031215611b0557600080fd5b611b0e8361161c565b9150611a836020840161161c565b600080600080600060a08688031215611b3457600080fd5b611b3d8661161c565b9450611b4b6020870161161c565b93506040860135925060608601359150608086013567ffffffffffffffff811115611b7557600080fd5b61190c888289016117ff565b600080600060608486031215611b9657600080fd5b611b9f8461161c565b9250611bad6020850161161c565b9150604084013590509250925092565b600181811c90821680611bd157607f821691505b602082108103611bf157634e487b7160e01b600052602260045260246000fd5b50919050565b634e487b7160e01b600052601160045260246000fd5b808202811582820484141761058857610588611bf7565b8082018082111561058857610588611bf7565b8181038181111561058857610588611bf7565b634e487b7160e01b600052603260045260246000fd5b600060018201611c7257611c72611bf7565b5060010190565b604081526000611c8c60408301856119fb565b8281036020840152611c9e81856119fb565b95945050505050565b6001600160a01b03868116825285166020820152604081018490526060810183905260a060808201819052600090611ce1908301846116b5565b979650505050505050565b600060208284031215611cfe57600080fd5b815161169581611662565b6001600160a01b0386811682528516602082015260a060408201819052600090611d35908301866119fb565b8281036060840152611d4781866119fb565b90508281036080840152611d5b81856116b5565b9897505050505050505056fea26469706673582212202445b53ec4797d4a8321677d04b78225bcf2ec7f0a3c508e4104c66bf472c6e964736f6c63430008140033",
  "linkReferences": {},
  "deployedLinkReferences": {}
}